{
  "_format": "hh-sol-artifact-1",
  "contractName": "EscrowDst",
  "sourceName": "contracts/EscrowDst.sol",
  "abi": [
    {
      "inputs": [
        {
          "internalType": "uint32",
          "name": "rescueDelay",
          "type": "uint32"
        },
        {
          "internalType": "contract IERC20",
          "name": "accessToken",
          "type": "address"
        }
      ],
      "stateMutability": "nonpayable",
      "type": "constructor"
    },
    {
      "inputs": [],
      "name": "InvalidCaller",
      "type": "error"
    },
    {
      "inputs": [],
      "name": "InvalidImmutables",
      "type": "error"
    },
    {
      "inputs": [],
      "name": "InvalidSecret",
      "type": "error"
    },
    {
      "inputs": [],
      "name": "InvalidTime",
      "type": "error"
    },
    {
      "inputs": [],
      "name": "NativeTokenSendingFailure",
      "type": "error"
    },
    {
      "inputs": [
        {
          "internalType": "address",
          "name": "token",
          "type": "address"
        }
      ],
      "name": "SafeERC20FailedOperation",
      "type": "error"
    },
    {
      "anonymous": false,
      "inputs": [],
      "name": "EscrowCancelled",
      "type": "event"
    },
    {
      "anonymous": false,
      "inputs": [],
      "name": "EscrowWithdrawal",
      "type": "event"
    },
    {
      "anonymous": false,
      "inputs": [
        {
          "indexed": false,
          "internalType": "address",
          "name": "token",
          "type": "address"
        },
        {
          "indexed": false,
          "internalType": "uint256",
          "name": "amount",
          "type": "uint256"
        }
      ],
      "name": "FundsRescued",
      "type": "event"
    },
    {
      "anonymous": false,
      "inputs": [
        {
          "indexed": true,
          "internalType": "bytes32",
          "name": "hashlock",
          "type": "bytes32"
        },
        {
          "indexed": false,
          "internalType": "string",
          "name": "cardanoAddress",
          "type": "string"
        }
      ],
      "name": "cardanoAddressRecorded",
      "type": "event"
    },
    {
      "anonymous": false,
      "inputs": [
        {
          "indexed": true,
          "internalType": "bytes32",
          "name": "hashlock",
          "type": "bytes32"
        },
        {
          "indexed": false,
          "internalType": "string",
          "name": "cardanoTxHash",
          "type": "string"
        }
      ],
      "name": "cardanoTxHashRecorded",
      "type": "event"
    },
    {
      "inputs": [],
      "name": "FACTORY",
      "outputs": [
        {
          "internalType": "address",
          "name": "",
          "type": "address"
        }
      ],
      "stateMutability": "view",
      "type": "function"
    },
    {
      "inputs": [],
      "name": "PROXY_BYTECODE_HASH",
      "outputs": [
        {
          "internalType": "bytes32",
          "name": "",
          "type": "bytes32"
        }
      ],
      "stateMutability": "view",
      "type": "function"
    },
    {
      "inputs": [],
      "name": "RESCUE_DELAY",
      "outputs": [
        {
          "internalType": "uint256",
          "name": "",
          "type": "uint256"
        }
      ],
      "stateMutability": "view",
      "type": "function"
    },
    {
      "inputs": [
        {
          "components": [
            {
              "internalType": "bytes32",
              "name": "orderHash",
              "type": "bytes32"
            },
            {
              "internalType": "bytes32",
              "name": "hashlock",
              "type": "bytes32"
            },
            {
              "internalType": "Address",
              "name": "maker",
              "type": "uint256"
            },
            {
              "internalType": "Address",
              "name": "taker",
              "type": "uint256"
            },
            {
              "internalType": "Address",
              "name": "token",
              "type": "uint256"
            },
            {
              "internalType": "uint256",
              "name": "amount",
              "type": "uint256"
            },
            {
              "internalType": "uint256",
              "name": "safetyDeposit",
              "type": "uint256"
            },
            {
              "internalType": "Timelocks",
              "name": "timelocks",
              "type": "uint256"
            }
          ],
          "internalType": "struct IBaseEscrow.Immutables",
          "name": "immutables",
          "type": "tuple"
        }
      ],
      "name": "cancel",
      "outputs": [],
      "stateMutability": "nonpayable",
      "type": "function"
    },
    {
      "inputs": [
        {
          "internalType": "bytes32",
          "name": "",
          "type": "bytes32"
        }
      ],
      "name": "cardanoAddresses",
      "outputs": [
        {
          "internalType": "string",
          "name": "",
          "type": "string"
        }
      ],
      "stateMutability": "view",
      "type": "function"
    },
    {
      "inputs": [
        {
          "internalType": "bytes32",
          "name": "",
          "type": "bytes32"
        }
      ],
      "name": "cardanoTxHashes",
      "outputs": [
        {
          "internalType": "string",
          "name": "",
          "type": "string"
        }
      ],
      "stateMutability": "view",
      "type": "function"
    },
    {
      "inputs": [
        {
          "internalType": "bytes32",
          "name": "hashlock",
          "type": "bytes32"
        }
      ],
      "name": "getcardanoAddress",
      "outputs": [
        {
          "internalType": "string",
          "name": "",
          "type": "string"
        }
      ],
      "stateMutability": "view",
      "type": "function"
    },
    {
      "inputs": [
        {
          "internalType": "bytes32",
          "name": "hashlock",
          "type": "bytes32"
        }
      ],
      "name": "getcardanoTxHash",
      "outputs": [
        {
          "internalType": "string",
          "name": "",
          "type": "string"
        }
      ],
      "stateMutability": "view",
      "type": "function"
    },
    {
      "inputs": [
        {
          "internalType": "bytes32",
          "name": "secret",
          "type": "bytes32"
        },
        {
          "components": [
            {
              "internalType": "bytes32",
              "name": "orderHash",
              "type": "bytes32"
            },
            {
              "internalType": "bytes32",
              "name": "hashlock",
              "type": "bytes32"
            },
            {
              "internalType": "Address",
              "name": "maker",
              "type": "uint256"
            },
            {
              "internalType": "Address",
              "name": "taker",
              "type": "uint256"
            },
            {
              "internalType": "Address",
              "name": "token",
              "type": "uint256"
            },
            {
              "internalType": "uint256",
              "name": "amount",
              "type": "uint256"
            },
            {
              "internalType": "uint256",
              "name": "safetyDeposit",
              "type": "uint256"
            },
            {
              "internalType": "Timelocks",
              "name": "timelocks",
              "type": "uint256"
            }
          ],
          "internalType": "struct IBaseEscrow.Immutables",
          "name": "immutables",
          "type": "tuple"
        }
      ],
      "name": "publicWithdraw",
      "outputs": [],
      "stateMutability": "nonpayable",
      "type": "function"
    },
    {
      "inputs": [
        {
          "internalType": "bytes32",
          "name": "hashlock",
          "type": "bytes32"
        },
        {
          "internalType": "string",
          "name": "cardanoAddress",
          "type": "string"
        },
        {
          "components": [
            {
              "internalType": "bytes32",
              "name": "orderHash",
              "type": "bytes32"
            },
            {
              "internalType": "bytes32",
              "name": "hashlock",
              "type": "bytes32"
            },
            {
              "internalType": "Address",
              "name": "maker",
              "type": "uint256"
            },
            {
              "internalType": "Address",
              "name": "taker",
              "type": "uint256"
            },
            {
              "internalType": "Address",
              "name": "token",
              "type": "uint256"
            },
            {
              "internalType": "uint256",
              "name": "amount",
              "type": "uint256"
            },
            {
              "internalType": "uint256",
              "name": "safetyDeposit",
              "type": "uint256"
            },
            {
              "internalType": "Timelocks",
              "name": "timelocks",
              "type": "uint256"
            }
          ],
          "internalType": "struct IBaseEscrow.Immutables",
          "name": "immutables",
          "type": "tuple"
        }
      ],
      "name": "recordcardanoAddress",
      "outputs": [],
      "stateMutability": "nonpayable",
      "type": "function"
    },
    {
      "inputs": [
        {
          "internalType": "bytes32",
          "name": "hashlock",
          "type": "bytes32"
        },
        {
          "internalType": "string",
          "name": "cardanoTxHash",
          "type": "string"
        },
        {
          "components": [
            {
              "internalType": "bytes32",
              "name": "orderHash",
              "type": "bytes32"
            },
            {
              "internalType": "bytes32",
              "name": "hashlock",
              "type": "bytes32"
            },
            {
              "internalType": "Address",
              "name": "maker",
              "type": "uint256"
            },
            {
              "internalType": "Address",
              "name": "taker",
              "type": "uint256"
            },
            {
              "internalType": "Address",
              "name": "token",
              "type": "uint256"
            },
            {
              "internalType": "uint256",
              "name": "amount",
              "type": "uint256"
            },
            {
              "internalType": "uint256",
              "name": "safetyDeposit",
              "type": "uint256"
            },
            {
              "internalType": "Timelocks",
              "name": "timelocks",
              "type": "uint256"
            }
          ],
          "internalType": "struct IBaseEscrow.Immutables",
          "name": "immutables",
          "type": "tuple"
        }
      ],
      "name": "recordcardanoTx",
      "outputs": [],
      "stateMutability": "nonpayable",
      "type": "function"
    },
    {
      "inputs": [
        {
          "internalType": "address",
          "name": "token",
          "type": "address"
        },
        {
          "internalType": "uint256",
          "name": "amount",
          "type": "uint256"
        },
        {
          "components": [
            {
              "internalType": "bytes32",
              "name": "orderHash",
              "type": "bytes32"
            },
            {
              "internalType": "bytes32",
              "name": "hashlock",
              "type": "bytes32"
            },
            {
              "internalType": "Address",
              "name": "maker",
              "type": "uint256"
            },
            {
              "internalType": "Address",
              "name": "taker",
              "type": "uint256"
            },
            {
              "internalType": "Address",
              "name": "token",
              "type": "uint256"
            },
            {
              "internalType": "uint256",
              "name": "amount",
              "type": "uint256"
            },
            {
              "internalType": "uint256",
              "name": "safetyDeposit",
              "type": "uint256"
            },
            {
              "internalType": "Timelocks",
              "name": "timelocks",
              "type": "uint256"
            }
          ],
          "internalType": "struct IBaseEscrow.Immutables",
          "name": "immutables",
          "type": "tuple"
        }
      ],
      "name": "rescueFunds",
      "outputs": [],
      "stateMutability": "nonpayable",
      "type": "function"
    },
    {
      "inputs": [
        {
          "internalType": "bytes32",
          "name": "",
          "type": "bytes32"
        },
        {
          "components": [
            {
              "internalType": "bytes32",
              "name": "orderHash",
              "type": "bytes32"
            },
            {
              "internalType": "bytes32",
              "name": "hashlock",
              "type": "bytes32"
            },
            {
              "internalType": "Address",
              "name": "maker",
              "type": "uint256"
            },
            {
              "internalType": "Address",
              "name": "taker",
              "type": "uint256"
            },
            {
              "internalType": "Address",
              "name": "token",
              "type": "uint256"
            },
            {
              "internalType": "uint256",
              "name": "amount",
              "type": "uint256"
            },
            {
              "internalType": "uint256",
              "name": "safetyDeposit",
              "type": "uint256"
            },
            {
              "internalType": "Timelocks",
              "name": "timelocks",
              "type": "uint256"
            }
          ],
          "internalType": "struct IBaseEscrow.Immutables",
          "name": "immutables",
          "type": "tuple"
        }
      ],
      "name": "withdraw",
      "outputs": [],
      "stateMutability": "nonpayable",
      "type": "function"
    },
    {
      "stateMutability": "payable",
      "type": "receive"
    }
  ],
  "bytecode": "0x6101006040523373ffffffffffffffffffffffffffffffffffffffff1660c09073ffffffffffffffffffffffffffffffffffffffff16815250610047306100c860201b60201c565b60e09081525034801561005957600080fd5b50604051611e5a380380611e5a833981810160405281019061007b91906101ae565b81818163ffffffff1660a081815250508073ffffffffffffffffffffffffffffffffffffffff1660808173ffffffffffffffffffffffffffffffffffffffff16815250505050505061030a565b600080826040516020016100dc91906102d9565b60405160208183030381529060405290508080519060200120915050919050565b600080fd5b600063ffffffff82169050919050565b61011b81610102565b811461012657600080fd5b50565b60008151905061013881610112565b92915050565b600073ffffffffffffffffffffffffffffffffffffffff82169050919050565b60006101698261013e565b9050919050565b600061017b8261015e565b9050919050565b61018b81610170565b811461019657600080fd5b50565b6000815190506101a881610182565b92915050565b600080604083850312156101c5576101c46100fd565b5b60006101d385828601610129565b92505060206101e485828601610199565b9150509250929050565b600081905092915050565b7f3d602d80600a3d3981f3363d3d373d3d3d363d73000000000000000000000000600082015250565b600061022f6014836101ee565b915061023a826101f9565b601482019050919050565b60008160601b9050919050565b600061025d82610245565b9050919050565b600061026f82610252565b9050919050565b6102876102828261015e565b610264565b82525050565b7f5af43d82803e903d91602b57fd5bf30000000000000000000000000000000000600082015250565b60006102c3600f836101ee565b91506102ce8261028d565b600f82019050919050565b60006102e482610222565b91506102f08284610276565b6014820191506102ff826102b6565b915081905092915050565b60805160a05160c05160e051611b02610358600039600081816106880152610d9f0152600081816106640152610dc001526000818161072b0152610d53015260006103410152611b026000f3fe6080604052600436106100c65760003560e01c80634feb9d521161007f57806390d3252f1161005957806390d3252f146102835780639637d532146102ac578063e8ad4740146102d5578063f56cd69c14610312576100cd565b80634feb9d52146101e0578063704de3681461021d5780637f0dd1241461025a576100cd565b80630af97558146100d257806323305703146100fb5780632c11fe4f146101245780632dd310001461016157806334862b6a1461018c5780634649088b146101b7576100cd565b366100cd57005b600080fd5b3480156100de57600080fd5b506100f960048036038101906100f49190611207565b61033d565b005b34801561010757600080fd5b50610122600480360381019061011d9190611207565b610534565b005b34801561013057600080fd5b5061014b60048036038101906101469190611248565b6105bd565b6040516101589190611305565b60405180910390f35b34801561016d57600080fd5b50610176610662565b6040516101839190611368565b60405180910390f35b34801561019857600080fd5b506101a1610686565b6040516101ae9190611392565b60405180910390f35b3480156101c357600080fd5b506101de60048036038101906101d9919061140f565b6106aa565b005b3480156101ec57600080fd5b5061020760048036038101906102029190611248565b6107e3565b6040516102149190611305565b60405180910390f35b34801561022957600080fd5b50610244600480360381019061023f9190611248565b610887565b6040516102519190611305565b60405180910390f35b34801561026657600080fd5b50610281600480360381019061027c91906114c8565b610927565b005b34801561028f57600080fd5b506102aa60048036038101906102a5919061153d565b610a4b565b005b3480156102b857600080fd5b506102d360048036038101906102ce91906114c8565b610b8c565b005b3480156102e157600080fd5b506102fc60048036038101906102f79190611248565b610cb1565b6040516103099190611305565b60405180910390f35b34801561031e57600080fd5b50610327610d51565b604051610334919061157a565b60405180910390f35b60007f000000000000000000000000000000000000000000000000000000000000000073ffffffffffffffffffffffffffffffffffffffff166370a08231336040518263ffffffff1660e01b81526004016103989190611368565b602060405180830381865afa1580156103b5573d6000803e3d6000fd5b505050506040513d601f19601f820116820180604052508101906103d991906115aa565b03610410576040517f48f5c3ed00000000000000000000000000000000000000000000000000000000815260040160405180910390fd5b8061041a81610d75565b828280602001358260405160200161043291906115f8565b604051602081830303815290604052805190602001201461047f576040517fabab6bd700000000000000000000000000000000000000000000000000000000815260040160405180910390fd5b61049760018560e00135610e3590919063ffffffff16565b804210156104d1576040517f6f7eac2600000000000000000000000000000000000000000000000000000000815260040160405180910390fd5b6104e960028660e00135610e3590919063ffffffff16565b804210610522576040517f6f7eac2600000000000000000000000000000000000000000000000000000000815260040160405180910390fd5b61052b86610e81565b50505050505050565b8061053e81610d75565b61054b8260600135610ef1565b73ffffffffffffffffffffffffffffffffffffffff163373ffffffffffffffffffffffffffffffffffffffff16146105af576040517f48f5c3ed00000000000000000000000000000000000000000000000000000000815260040160405180910390fd5b6105b882610e81565b505050565b60606001600083815260200190815260200160002080546105dd90611642565b80601f016020809104026020016040519081016040528092919081815260200182805461060990611642565b80156106565780601f1061062b57610100808354040283529160200191610656565b820191906000526020600020905b81548152906001019060200180831161063957829003601f168201915b50505050509050919050565b7f000000000000000000000000000000000000000000000000000000000000000081565b7f000000000000000000000000000000000000000000000000000000000000000081565b806106b88160600135610ef1565b73ffffffffffffffffffffffffffffffffffffffff163373ffffffffffffffffffffffffffffffffffffffff161461071c576040517f48f5c3ed00000000000000000000000000000000000000000000000000000000815260040160405180910390fd5b8161072681610d75565b61075d7f00000000000000000000000000000000000000000000000000000000000000008460e00135610efb90919063ffffffff16565b80421015610797576040517f6f7eac2600000000000000000000000000000000000000000000000000000000815260040160405180910390fd5b6107a2863387610f0c565b7fc4474c2790e13695f6d2b6f1d8e164290b55370f87a542fd7711abe0a1bf40ac86866040516107d3929190611673565b60405180910390a1505050505050565b6060600080838152602001908152602001600020805461080290611642565b80601f016020809104026020016040519081016040528092919081815260200182805461082e90611642565b801561087b5780601f106108505761010080835404028352916020019161087b565b820191906000526020600020905b81548152906001019060200180831161085e57829003601f168201915b50505050509050919050565b600160205280600052604060002060009150905080546108a690611642565b80601f01602080910402602001604051908101604052809291908181526020018280546108d290611642565b801561091f5780601f106108f45761010080835404028352916020019161091f565b820191906000526020600020905b81548152906001019060200180831161090257829003601f168201915b505050505081565b8061093181610d75565b61093e8260400135610ef1565b73ffffffffffffffffffffffffffffffffffffffff163373ffffffffffffffffffffffffffffffffffffffff16141580156109b157506109818260600135610ef1565b73ffffffffffffffffffffffffffffffffffffffff163373ffffffffffffffffffffffffffffffffffffffff1614155b156109e8576040517f48f5c3ed00000000000000000000000000000000000000000000000000000000815260040160405180910390fd5b83836000808881526020019081526020016000209182610a09929190611882565b50847f483d3112ecb64783c4387ebc2b4d6ec343dac57d2dd847b8fb25d97493c682288585604051610a3c92919061198e565b60405180910390a25050505050565b80610a598160600135610ef1565b73ffffffffffffffffffffffffffffffffffffffff163373ffffffffffffffffffffffffffffffffffffffff1614610abd576040517f48f5c3ed00000000000000000000000000000000000000000000000000000000815260040160405180910390fd5b81610ac781610d75565b610adf60028460e00135610e3590919063ffffffff16565b80421015610b19576040517f6f7eac2600000000000000000000000000000000000000000000000000000000815260040160405180910390fd5b610b40610b298560800135610ef1565b610b368660600135610ef1565b8660a00135610f0c565b610b5a610b508560600135610ef1565b8560c00135610f80565b7f6e3be9294e58d10b9c8053cfd5e09871b67e442fe394d6b0870d336b9df984a960405160405180910390a150505050565b80610b9681610d75565b610ba38260400135610ef1565b73ffffffffffffffffffffffffffffffffffffffff163373ffffffffffffffffffffffffffffffffffffffff1614158015610c165750610be68260600135610ef1565b73ffffffffffffffffffffffffffffffffffffffff163373ffffffffffffffffffffffffffffffffffffffff1614155b15610c4d576040517f48f5c3ed00000000000000000000000000000000000000000000000000000000815260040160405180910390fd5b8383600160008881526020019081526020016000209182610c6f929190611882565b50847fa3870e65776f13431dbed98ac6f948c2aa40b45d03971b2aa86a82e2410f7b398585604051610ca292919061198e565b60405180910390a25050505050565b60006020528060005260406000206000915090508054610cd090611642565b80601f0160208091040260200160405190810160405280929190818152602001828054610cfc90611642565b8015610d495780601f10610d1e57610100808354040283529160200191610d49565b820191906000526020600020905b815481529060010190602001808311610d2c57829003601f168201915b505050505081565b7f000000000000000000000000000000000000000000000000000000000000000081565b6000610d8082611028565b90503073ffffffffffffffffffffffffffffffffffffffff16610de4827f00000000000000000000000000000000000000000000000000000000000000007f0000000000000000000000000000000000000000000000000000000000000000611040565b73ffffffffffffffffffffffffffffffffffffffff1614610e31576040517fa269484a00000000000000000000000000000000000000000000000000000000815260040160405180910390fd5b5050565b60008083905060006020846002811115610e5257610e516119b2565b5b610e5c9190611a10565b90508082901c63ffffffff1660e083901c610e779190611a52565b9250505092915050565b610ea8610e918260800135610ef1565b610e9e8360400135610ef1565b8360a00135610f0c565b610ec2610eb88260600135610ef1565b8260c00135610f80565b7ff2d860bc4f7fceae44fa48412367ec0186facf1dc99dfea591679d3ee6c930d360405160405180910390a150565b6000819050919050565b600060e083901c8201905092915050565b600073ffffffffffffffffffffffffffffffffffffffff168373ffffffffffffffffffffffffffffffffffffffff1603610f4f57610f4a8282610f80565b610f7b565b610f7a82828573ffffffffffffffffffffffffffffffffffffffff166110819092919063ffffffff16565b5b505050565b60008273ffffffffffffffffffffffffffffffffffffffff1682604051610fa690611ab7565b60006040518083038185875af1925050503d8060008114610fe3576040519150601f19603f3d011682016040523d82523d6000602084013e610fe8565b606091505b5050905080611023576040517f8a0332d500000000000000000000000000000000000000000000000000000000815260040160405180910390fd5b505050565b60006040516101008382376101008120915050919050565b6000604051836040820152846020820152828152600b810160ff815373ffffffffffffffffffffffffffffffffffffffff6055822016925050509392505050565b6110fb838473ffffffffffffffffffffffffffffffffffffffff1663a9059cbb85856040516024016110b4929190611673565b604051602081830303815290604052915060e01b6020820180517bffffffffffffffffffffffffffffffffffffffffffffffffffffffff8381831617835250505050611100565b505050565b600080602060008451602086016000885af180611123576040513d6000823e3d81fd5b3d92506000519150506000821461113e57600181141561115a565b60008473ffffffffffffffffffffffffffffffffffffffff163b145b1561119c57836040517f5274afe70000000000000000000000000000000000000000000000000000000081526004016111939190611368565b60405180910390fd5b50505050565b600080fd5b600080fd5b6000819050919050565b6111bf816111ac565b81146111ca57600080fd5b50565b6000813590506111dc816111b6565b92915050565b600080fd5b600061010082840312156111fe576111fd6111e2565b5b81905092915050565b600080610120838503121561121f5761121e6111a2565b5b600061122d858286016111cd565b925050602061123e858286016111e7565b9150509250929050565b60006020828403121561125e5761125d6111a2565b5b600061126c848285016111cd565b91505092915050565b600081519050919050565b600082825260208201905092915050565b60005b838110156112af578082015181840152602081019050611294565b60008484015250505050565b6000601f19601f8301169050919050565b60006112d782611275565b6112e18185611280565b93506112f1818560208601611291565b6112fa816112bb565b840191505092915050565b6000602082019050818103600083015261131f81846112cc565b905092915050565b600073ffffffffffffffffffffffffffffffffffffffff82169050919050565b600061135282611327565b9050919050565b61136281611347565b82525050565b600060208201905061137d6000830184611359565b92915050565b61138c816111ac565b82525050565b60006020820190506113a76000830184611383565b92915050565b6113b681611347565b81146113c157600080fd5b50565b6000813590506113d3816113ad565b92915050565b6000819050919050565b6113ec816113d9565b81146113f757600080fd5b50565b600081359050611409816113e3565b92915050565b60008060006101408486031215611429576114286111a2565b5b6000611437868287016113c4565b9350506020611448868287016113fa565b9250506040611459868287016111e7565b9150509250925092565b600080fd5b600080fd5b600080fd5b60008083601f84011261148857611487611463565b5b8235905067ffffffffffffffff8111156114a5576114a4611468565b5b6020830191508360018202830111156114c1576114c061146d565b5b9250929050565b60008060008061014085870312156114e3576114e26111a2565b5b60006114f1878288016111cd565b945050602085013567ffffffffffffffff811115611512576115116111a7565b5b61151e87828801611472565b93509350506040611531878288016111e7565b91505092959194509250565b60006101008284031215611554576115536111a2565b5b6000611562848285016111e7565b91505092915050565b611574816113d9565b82525050565b600060208201905061158f600083018461156b565b92915050565b6000815190506115a4816113e3565b92915050565b6000602082840312156115c0576115bf6111a2565b5b60006115ce84828501611595565b91505092915050565b6000819050919050565b6115f26115ed826111ac565b6115d7565b82525050565b600061160482846115e1565b60208201915081905092915050565b7f4e487b7100000000000000000000000000000000000000000000000000000000600052602260045260246000fd5b6000600282049050600182168061165a57607f821691505b60208210810361166d5761166c611613565b5b50919050565b60006040820190506116886000830185611359565b611695602083018461156b565b9392505050565b600082905092915050565b7f4e487b7100000000000000000000000000000000000000000000000000000000600052604160045260246000fd5b60008190508160005260206000209050919050565b60006020601f8301049050919050565b600082821b905092915050565b6000600883026117387fffffffffffffffffffffffffffffffffffffffffffffffffffffffffffffffff826116fb565b61174286836116fb565b95508019841693508086168417925050509392505050565b6000819050919050565b600061177f61177a611775846113d9565b61175a565b6113d9565b9050919050565b6000819050919050565b61179983611764565b6117ad6117a582611786565b848454611708565b825550505050565b600090565b6117c26117b5565b6117cd818484611790565b505050565b5b818110156117f1576117e66000826117ba565b6001810190506117d3565b5050565b601f82111561183657611807816116d6565b611810846116eb565b8101602085101561181f578190505b61183361182b856116eb565b8301826117d2565b50505b505050565b600082821c905092915050565b60006118596000198460080261183b565b1980831691505092915050565b60006118728383611848565b9150826002028217905092915050565b61188c838361169c565b67ffffffffffffffff8111156118a5576118a46116a7565b5b6118af8254611642565b6118ba8282856117f5565b6000601f8311600181146118e957600084156118d7578287013590505b6118e18582611866565b865550611949565b601f1984166118f7866116d6565b60005b8281101561191f578489013582556001820191506020850194506020810190506118fa565b8683101561193c5784890135611938601f891682611848565b8355505b6001600288020188555050505b50505050505050565b82818337600083830152505050565b600061196d8385611280565b935061197a838584611952565b611983836112bb565b840190509392505050565b600060208201905081810360008301526119a9818486611961565b90509392505050565b7f4e487b7100000000000000000000000000000000000000000000000000000000600052602160045260246000fd5b7f4e487b7100000000000000000000000000000000000000000000000000000000600052601160045260246000fd5b6000611a1b826113d9565b9150611a26836113d9565b9250828202611a34816113d9565b91508282048414831517611a4b57611a4a6119e1565b5b5092915050565b6000611a5d826113d9565b9150611a68836113d9565b9250828201905080821115611a8057611a7f6119e1565b5b92915050565b600081905092915050565b50565b6000611aa1600083611a86565b9150611aac82611a91565b600082019050919050565b6000611ac282611a94565b915081905091905056fea2646970667358221220eea1d22f86b690fdbad57ed3aeabdf38825a74629b18db7898196f3b69b8e29d64736f6c634300081e0033",
  "linkReferences": {},
  "deployedLinkReferences": {}
}