{
  "_format": "hh-sol-artifact-1",
  "contractName": "EscrowFactory",
  "sourceName": "contracts/EscrowFactory.sol",
  "abi": [
    {
      "inputs": [
        {
          "internalType": "address",
          "name": "owner",
          "type": "address"
        },
        {
          "internalType": "uint32",
          "name": "rescueDelaySrc",
          "type": "uint32"
        },
        {
          "internalType": "uint32",
          "name": "rescueDelayDst",
          "type": "uint32"
        },
        {
          "internalType": "address",
          "name": "accessToken",
          "type": "address"
        }
      ],
      "stateMutability": "nonpayable",
      "type": "constructor"
    },
    {
      "inputs": [],
      "name": "FailedDeployment",
      "type": "error"
    },
    {
      "inputs": [
        {
          "internalType": "uint256",
          "name": "balance",
          "type": "uint256"
        },
        {
          "internalType": "uint256",
          "name": "needed",
          "type": "uint256"
        }
      ],
      "name": "InsufficientBalance",
      "type": "error"
    },
    {
      "inputs": [],
      "name": "InsufficientEscrowBalance",
      "type": "error"
    },
    {
      "inputs": [],
      "name": "InsufficientPrefundedDeposit",
      "type": "error"
    },
    {
      "inputs": [],
      "name": "OnlyLimitOrderProtocol",
      "type": "error"
    },
    {
      "inputs": [
        {
          "internalType": "address",
          "name": "owner",
          "type": "address"
        }
      ],
      "name": "OwnableInvalidOwner",
      "type": "error"
    },
    {
      "inputs": [
        {
          "internalType": "address",
          "name": "account",
          "type": "address"
        }
      ],
      "name": "OwnableUnauthorizedAccount",
      "type": "error"
    },
    {
      "inputs": [
        {
          "internalType": "address",
          "name": "token",
          "type": "address"
        }
      ],
      "name": "SafeERC20FailedOperation",
      "type": "error"
    },
    {
      "anonymous": false,
      "inputs": [
        {
          "indexed": false,
          "internalType": "address",
          "name": "escrow",
          "type": "address"
        },
        {
          "indexed": false,
          "internalType": "bytes32",
          "name": "hashlock",
          "type": "bytes32"
        },
        {
          "indexed": false,
          "internalType": "Address",
          "name": "taker",
          "type": "uint256"
        },
        {
          "indexed": true,
          "internalType": "address",
          "name": "creator",
          "type": "address"
        }
      ],
      "name": "DstEscrowCreated",
      "type": "event"
    },
    {
      "anonymous": false,
      "inputs": [
        {
          "indexed": true,
          "internalType": "address",
          "name": "proxy",
          "type": "address"
        },
        {
          "indexed": true,
          "internalType": "address",
          "name": "resolver",
          "type": "address"
        },
        {
          "indexed": true,
          "internalType": "address",
          "name": "maker",
          "type": "address"
        }
      ],
      "name": "EscrowDstDeployed",
      "type": "event"
    },
    {
      "anonymous": false,
      "inputs": [
        {
          "indexed": true,
          "internalType": "address",
          "name": "proxy",
          "type": "address"
        },
        {
          "indexed": true,
          "internalType": "address",
          "name": "maker",
          "type": "address"
        },
        {
          "indexed": true,
          "internalType": "address",
          "name": "resolver",
          "type": "address"
        }
      ],
      "name": "EscrowSrcDeployed",
      "type": "event"
    },
    {
      "anonymous": false,
      "inputs": [
        {
          "indexed": true,
          "internalType": "address",
          "name": "previousOwner",
          "type": "address"
        },
        {
          "indexed": true,
          "internalType": "address",
          "name": "newOwner",
          "type": "address"
        }
      ],
      "name": "OwnershipTransferred",
      "type": "event"
    },
    {
      "anonymous": false,
      "inputs": [
        {
          "indexed": false,
          "internalType": "address",
          "name": "escrow",
          "type": "address"
        },
        {
          "indexed": false,
          "internalType": "bytes32",
          "name": "hashlock",
          "type": "bytes32"
        },
        {
          "indexed": false,
          "internalType": "Address",
          "name": "maker",
          "type": "uint256"
        },
        {
          "indexed": true,
          "internalType": "address",
          "name": "creator",
          "type": "address"
        }
      ],
      "name": "SrcEscrowCreated",
      "type": "event"
    },
    {
      "inputs": [],
      "name": "ESCROW_DST_IMPLEMENTATION",
      "outputs": [
        {
          "internalType": "address",
          "name": "",
          "type": "address"
        }
      ],
      "stateMutability": "view",
      "type": "function"
    },
    {
      "inputs": [],
      "name": "ESCROW_SRC_IMPLEMENTATION",
      "outputs": [
        {
          "internalType": "address",
          "name": "",
          "type": "address"
        }
      ],
      "stateMutability": "view",
      "type": "function"
    },
    {
      "inputs": [
        {
          "components": [
            {
              "internalType": "bytes32",
              "name": "orderHash",
              "type": "bytes32"
            },
            {
              "internalType": "bytes32",
              "name": "hashlock",
              "type": "bytes32"
            },
            {
              "internalType": "Address",
              "name": "maker",
              "type": "uint256"
            },
            {
              "internalType": "Address",
              "name": "taker",
              "type": "uint256"
            },
            {
              "internalType": "Address",
              "name": "token",
              "type": "uint256"
            },
            {
              "internalType": "uint256",
              "name": "amount",
              "type": "uint256"
            },
            {
              "internalType": "uint256",
              "name": "safetyDeposit",
              "type": "uint256"
            },
            {
              "internalType": "Timelocks",
              "name": "timelocks",
              "type": "uint256"
            }
          ],
          "internalType": "struct IBaseEscrow.Immutables",
          "name": "immutables",
          "type": "tuple"
        }
      ],
      "name": "addressOfEscrowDst",
      "outputs": [
        {
          "internalType": "address",
          "name": "",
          "type": "address"
        }
      ],
      "stateMutability": "view",
      "type": "function"
    },
    {
      "inputs": [
        {
          "components": [
            {
              "internalType": "bytes32",
              "name": "orderHash",
              "type": "bytes32"
            },
            {
              "internalType": "bytes32",
              "name": "hashlock",
              "type": "bytes32"
            },
            {
              "internalType": "Address",
              "name": "maker",
              "type": "uint256"
            },
            {
              "internalType": "Address",
              "name": "taker",
              "type": "uint256"
            },
            {
              "internalType": "Address",
              "name": "token",
              "type": "uint256"
            },
            {
              "internalType": "uint256",
              "name": "amount",
              "type": "uint256"
            },
            {
              "internalType": "uint256",
              "name": "safetyDeposit",
              "type": "uint256"
            },
            {
              "internalType": "Timelocks",
              "name": "timelocks",
              "type": "uint256"
            }
          ],
          "internalType": "struct IBaseEscrow.Immutables",
          "name": "immutables",
          "type": "tuple"
        }
      ],
      "name": "addressOfEscrowSrc",
      "outputs": [
        {
          "internalType": "address",
          "name": "",
          "type": "address"
        }
      ],
      "stateMutability": "view",
      "type": "function"
    },
    {
      "inputs": [
        {
          "components": [
            {
              "internalType": "bytes32",
              "name": "orderHash",
              "type": "bytes32"
            },
            {
              "internalType": "bytes32",
              "name": "hashlock",
              "type": "bytes32"
            },
            {
              "internalType": "Address",
              "name": "maker",
              "type": "uint256"
            },
            {
              "internalType": "Address",
              "name": "taker",
              "type": "uint256"
            },
            {
              "internalType": "Address",
              "name": "token",
              "type": "uint256"
            },
            {
              "internalType": "uint256",
              "name": "amount",
              "type": "uint256"
            },
            {
              "internalType": "uint256",
              "name": "safetyDeposit",
              "type": "uint256"
            },
            {
              "internalType": "Timelocks",
              "name": "timelocks",
              "type": "uint256"
            }
          ],
          "internalType": "struct IBaseEscrow.Immutables",
          "name": "immutables",
          "type": "tuple"
        }
      ],
      "name": "createDstEscrow",
      "outputs": [],
      "stateMutability": "payable",
      "type": "function"
    },
    {
      "inputs": [
        {
          "components": [
            {
              "internalType": "bytes32",
              "name": "orderHash",
              "type": "bytes32"
            },
            {
              "internalType": "bytes32",
              "name": "hashlock",
              "type": "bytes32"
            },
            {
              "internalType": "Address",
              "name": "maker",
              "type": "uint256"
            },
            {
              "internalType": "Address",
              "name": "taker",
              "type": "uint256"
            },
            {
              "internalType": "Address",
              "name": "token",
              "type": "uint256"
            },
            {
              "internalType": "uint256",
              "name": "amount",
              "type": "uint256"
            },
            {
              "internalType": "uint256",
              "name": "safetyDeposit",
              "type": "uint256"
            },
            {
              "internalType": "Timelocks",
              "name": "timelocks",
              "type": "uint256"
            }
          ],
          "internalType": "struct IBaseEscrow.Immutables",
          "name": "immutables",
          "type": "tuple"
        }
      ],
      "name": "createSrcEscrow",
      "outputs": [],
      "stateMutability": "payable",
      "type": "function"
    },
    {
      "inputs": [],
      "name": "getEscrowDstImplementation",
      "outputs": [
        {
          "internalType": "address",
          "name": "",
          "type": "address"
        }
      ],
      "stateMutability": "view",
      "type": "function"
    },
    {
      "inputs": [],
      "name": "getEscrowSrcImplementation",
      "outputs": [
        {
          "internalType": "address",
          "name": "",
          "type": "address"
        }
      ],
      "stateMutability": "view",
      "type": "function"
    },
    {
      "inputs": [],
      "name": "limitOrderProtocol",
      "outputs": [
        {
          "internalType": "address",
          "name": "",
          "type": "address"
        }
      ],
      "stateMutability": "view",
      "type": "function"
    },
    {
      "inputs": [],
      "name": "owner",
      "outputs": [
        {
          "internalType": "address",
          "name": "",
          "type": "address"
        }
      ],
      "stateMutability": "view",
      "type": "function"
    },
    {
      "inputs": [
        {
          "components": [
            {
              "internalType": "address",
              "name": "maker",
              "type": "address"
            },
            {
              "internalType": "address",
              "name": "makerAsset",
              "type": "address"
            },
            {
              "internalType": "address",
              "name": "takerAsset",
              "type": "address"
            },
            {
              "internalType": "uint256",
              "name": "makingAmount",
              "type": "uint256"
            },
            {
              "internalType": "uint256",
              "name": "takingAmount",
              "type": "uint256"
            },
            {
              "internalType": "address",
              "name": "receiver",
              "type": "address"
            },
            {
              "internalType": "bytes32",
              "name": "hashlock",
              "type": "bytes32"
            },
            {
              "internalType": "uint256",
              "name": "salt",
              "type": "uint256"
            }
          ],
          "internalType": "struct IAtomicSwapLOP.Order",
          "name": "order",
          "type": "tuple"
        },
        {
          "internalType": "bytes32",
          "name": "orderHash",
          "type": "bytes32"
        },
        {
          "internalType": "address",
          "name": "taker",
          "type": "address"
        },
        {
          "internalType": "uint256",
          "name": "makingAmount",
          "type": "uint256"
        },
        {
          "internalType": "uint256",
          "name": "",
          "type": "uint256"
        },
        {
          "internalType": "uint256",
          "name": "safetyDeposit",
          "type": "uint256"
        }
      ],
      "name": "postInteraction",
      "outputs": [],
      "stateMutability": "payable",
      "type": "function"
    },
    {
      "inputs": [],
      "name": "renounceOwnership",
      "outputs": [],
      "stateMutability": "nonpayable",
      "type": "function"
    },
    {
      "inputs": [
        {
          "internalType": "address",
          "name": "_lopAddress",
          "type": "address"
        }
      ],
      "name": "setLimitOrderProtocol",
      "outputs": [],
      "stateMutability": "nonpayable",
      "type": "function"
    },
    {
      "inputs": [
        {
          "internalType": "address",
          "name": "newOwner",
          "type": "address"
        }
      ],
      "name": "transferOwnership",
      "outputs": [],
      "stateMutability": "nonpayable",
      "type": "function"
    }
  ],
  "bytecode": "0x61010060405234801561001157600080fd5b50604051615a3e380380615a3e83398181016040528101906100339190610373565b83600073ffffffffffffffffffffffffffffffffffffffff168173ffffffffffffffffffffffffffffffffffffffff16036100a65760006040517f1e4fbdf700000000000000000000000000000000000000000000000000000000815260040161009d91906103e9565b60405180910390fd5b6100b5816101c160201b60201c565b5082816040516100c4906102ba565b6100cf929190610472565b604051809103906000f0801580156100eb573d6000803e3d6000fd5b5073ffffffffffffffffffffffffffffffffffffffff1660808173ffffffffffffffffffffffffffffffffffffffff1681525050818160405161012d906102c7565b610138929190610472565b604051809103906000f080158015610154573d6000803e3d6000fd5b5073ffffffffffffffffffffffffffffffffffffffff1660a08173ffffffffffffffffffffffffffffffffffffffff168152505061019960805161028560201b60201c565b60c081815250506101b160a05161028560201b60201c565b60e08181525050505050506105b7565b60008060009054906101000a900473ffffffffffffffffffffffffffffffffffffffff169050816000806101000a81548173ffffffffffffffffffffffffffffffffffffffff021916908373ffffffffffffffffffffffffffffffffffffffff1602179055508173ffffffffffffffffffffffffffffffffffffffff168173ffffffffffffffffffffffffffffffffffffffff167f8be0079c531659141344cd1fd0a4f28419497f9722a3daafe3b4186f6b6457e060405160405180910390a35050565b600080826040516020016102999190610586565b60405160208183030381529060405290508080519060200120915050919050565b611e7b80611d6983390190565b611e5a80613be483390190565b600080fd5b600073ffffffffffffffffffffffffffffffffffffffff82169050919050565b6000610304826102d9565b9050919050565b610314816102f9565b811461031f57600080fd5b50565b6000815190506103318161030b565b92915050565b600063ffffffff82169050919050565b61035081610337565b811461035b57600080fd5b50565b60008151905061036d81610347565b92915050565b6000806000806080858703121561038d5761038c6102d4565b5b600061039b87828801610322565b94505060206103ac8782880161035e565b93505060406103bd8782880161035e565b92505060606103ce87828801610322565b91505092959194509250565b6103e3816102f9565b82525050565b60006020820190506103fe60008301846103da565b92915050565b61040d81610337565b82525050565b6000819050919050565b600061043861043361042e846102d9565b610413565b6102d9565b9050919050565b600061044a8261041d565b9050919050565b600061045c8261043f565b9050919050565b61046c81610451565b82525050565b60006040820190506104876000830185610404565b6104946020830184610463565b9392505050565b600081905092915050565b7f3d602d80600a3d3981f3363d3d373d3d3d363d73000000000000000000000000600082015250565b60006104dc60148361049b565b91506104e7826104a6565b601482019050919050565b60008160601b9050919050565b600061050a826104f2565b9050919050565b600061051c826104ff565b9050919050565b61053461052f826102f9565b610511565b82525050565b7f5af43d82803e903d91602b57fd5bf30000000000000000000000000000000000600082015250565b6000610570600f8361049b565b915061057b8261053a565b600f82019050919050565b6000610591826104cf565b915061059d8284610523565b6014820191506105ac82610563565b915081905092915050565b60805160a05160c05160e051611756610613600039600061063901526000610bc70152600081816104080152818161054601526105f301526000818161031f0152818161056c0152818161072a015261098001526117566000f3fe6080604052600436106100dd5760003560e01c80638da5cb5b1161007f578063c3a2884111610059578063c3a288411461027d578063ec38f8d114610299578063f2fde38b146102b5578063fb6bd47e146102de576100dd565b80638da5cb5b146101ea578063ba55117714610215578063be58e91c14610240576100dd565b806355e50032116100bb57806355e50032146101525780637040f1731461017d578063715018a6146101a85780637f94dd33146101bf576100dd565b806307f0c085146100e25780634579d04b1461010d5780634772337314610129575b600080fd5b3480156100ee57600080fd5b506100f761031b565b6040516101049190611134565b60405180910390f35b61012760048036038101906101229190611183565b610343565b005b34801561013557600080fd5b50610150600480360381019061014b91906111dd565b6104f6565b005b34801561015e57600080fd5b50610167610542565b6040516101749190611134565b60405180910390f35b34801561018957600080fd5b5061019261056a565b60405161019f9190611134565b60405180910390f35b3480156101b457600080fd5b506101bd61058e565b005b3480156101cb57600080fd5b506101d46105a2565b6040516101e19190611134565b60405180910390f35b3480156101f657600080fd5b506101ff6105c8565b60405161020c9190611134565b60405180910390f35b34801561022157600080fd5b5061022a6105f1565b6040516102379190611134565b60405180910390f35b34801561024c57600080fd5b5061026760048036038101906102629190611183565b610615565b6040516102749190611134565b60405180910390f35b61029760048036038101906102929190611183565b610665565b005b6102b360048036038101906102ae9190611296565b610818565b005b3480156102c157600080fd5b506102dc60048036038101906102d791906111dd565b610b1d565b005b3480156102ea57600080fd5b5061030560048036038101906103009190611183565b610ba3565b6040516103129190611134565b60405180910390f35b60007f0000000000000000000000000000000000000000000000000000000000000000905090565b60006103528260800135610bf3565b905060008260c001359050600073ffffffffffffffffffffffffffffffffffffffff168273ffffffffffffffffffffffffffffffffffffffff16036103a4578260a00135816103a19190611358565b90505b8034146103dd576040517f34f5151d00000000000000000000000000000000000000000000000000000000815260040160405180910390fd5b6000838036038101906103f0919061153f565b905060006103fd82610bfd565b9050600061042c82347f0000000000000000000000000000000000000000000000000000000000000000610c0b565b9050600073ffffffffffffffffffffffffffffffffffffffff168573ffffffffffffffffffffffffffffffffffffffff16146104945761049333828860a001358873ffffffffffffffffffffffffffffffffffffffff16610cf6909392919063ffffffff16565b5b3373ffffffffffffffffffffffffffffffffffffffff167f518f052b717cd6e4cf0abca59109d2531d264ce8e86d81e900110a4eacdee10682886020013589606001356040516104e6939291906115b7565b60405180910390a2505050505050565b6104fe610d78565b80600160006101000a81548173ffffffffffffffffffffffffffffffffffffffff021916908373ffffffffffffffffffffffffffffffffffffffff16021790555050565b60007f0000000000000000000000000000000000000000000000000000000000000000905090565b7f000000000000000000000000000000000000000000000000000000000000000081565b610596610d78565b6105a06000610dff565b565b600160009054906101000a900473ffffffffffffffffffffffffffffffffffffffff1681565b60008060009054906101000a900473ffffffffffffffffffffffffffffffffffffffff16905090565b7f000000000000000000000000000000000000000000000000000000000000000081565b60008082803603810190610629919061153f565b905061065d61063782610bfd565b7f0000000000000000000000000000000000000000000000000000000000000000610ec3565b915050919050565b60006106748260800135610bf3565b905060008260c001359050600073ffffffffffffffffffffffffffffffffffffffff168273ffffffffffffffffffffffffffffffffffffffff16036106c6578260a00135816106c39190611358565b90505b8034146106ff576040517f34f5151d00000000000000000000000000000000000000000000000000000000815260040160405180910390fd5b600083803603810190610712919061153f565b9050600061071f82610bfd565b9050600061074e82347f0000000000000000000000000000000000000000000000000000000000000000610c0b565b9050600073ffffffffffffffffffffffffffffffffffffffff168573ffffffffffffffffffffffffffffffffffffffff16146107b6576107b533828860a001358873ffffffffffffffffffffffffffffffffffffffff16610cf6909392919063ffffffff16565b5b3373ffffffffffffffffffffffffffffffffffffffff167f54a6401c7dbf5f93434419131a2b02390428924f99a62619b581ecc916e261478288602001358960400135604051610808939291906115b7565b60405180910390a2505050505050565b600160009054906101000a900473ffffffffffffffffffffffffffffffffffffffff1673ffffffffffffffffffffffffffffffffffffffff163373ffffffffffffffffffffffffffffffffffffffff161461089f576040517fd25aa10600000000000000000000000000000000000000000000000000000000815260040160405180910390fd5b60006040518061010001604052808781526020018860c0013581526020016108d88960000160208101906108d391906111dd565b610ed8565b81526020016108e687610ed8565b815260200161090689602001602081019061090191906111dd565b610ed8565b815260200185815260200183815260200160008152509050600061092982610bfd565b905060008073ffffffffffffffffffffffffffffffffffffffff166109518460800151610bf3565b73ffffffffffffffffffffffffffffffffffffffff1614610973576000610975565b855b905060006109a483837f0000000000000000000000000000000000000000000000000000000000000000610c0b565b905081856109b29190611358565b8173ffffffffffffffffffffffffffffffffffffffff16311015610a02576040517f45ac78e800000000000000000000000000000000000000000000000000000000815260040160405180910390fd5b600073ffffffffffffffffffffffffffffffffffffffff16610a278560800151610bf3565b73ffffffffffffffffffffffffffffffffffffffff1614610a8e57610a8d8a6000016020810190610a5891906111dd565b8289610a678860800151610bf3565b73ffffffffffffffffffffffffffffffffffffffff16610cf6909392919063ffffffff16565b5b8773ffffffffffffffffffffffffffffffffffffffff168a6000016020810190610ab891906111dd565b73ffffffffffffffffffffffffffffffffffffffff168273ffffffffffffffffffffffffffffffffffffffff167fbdccd184e064a25d8628c4dbb3833b9d874231bbc244296e8e8deaed75b6730b60405160405180910390a450505050505050505050565b610b25610d78565b600073ffffffffffffffffffffffffffffffffffffffff168173ffffffffffffffffffffffffffffffffffffffff1603610b975760006040517f1e4fbdf7000000000000000000000000000000000000000000000000000000008152600401610b8e9190611134565b60405180910390fd5b610ba081610dff565b50565b60008082803603810190610bb7919061153f565b9050610beb610bc582610bfd565b7f0000000000000000000000000000000000000000000000000000000000000000610ec3565b915050919050565b6000819050919050565b600061010082209050919050565b6000610c36848373ffffffffffffffffffffffffffffffffffffffff16610ef890919063ffffffff16565b90506000831115610cef5760008173ffffffffffffffffffffffffffffffffffffffff1684604051610c679061161f565b60006040518083038185875af1925050503d8060008114610ca4576040519150601f19603f3d011682016040523d82523d6000602084013e610ca9565b606091505b5050905080610ced576040517f08c379a0000000000000000000000000000000000000000000000000000000008152600401610ce490611691565b60405180910390fd5b505b9392505050565b610d72848573ffffffffffffffffffffffffffffffffffffffff166323b872dd868686604051602401610d2b939291906116c0565b604051602081830303815290604052915060e01b6020820180517bffffffffffffffffffffffffffffffffffffffffffffffffffffffff8381831617835250505050610f0e565b50505050565b610d80610fb0565b73ffffffffffffffffffffffffffffffffffffffff16610d9e6105c8565b73ffffffffffffffffffffffffffffffffffffffff1614610dfd57610dc1610fb0565b6040517f118cdaa7000000000000000000000000000000000000000000000000000000008152600401610df49190611134565b60405180910390fd5b565b60008060009054906101000a900473ffffffffffffffffffffffffffffffffffffffff169050816000806101000a81548173ffffffffffffffffffffffffffffffffffffffff021916908373ffffffffffffffffffffffffffffffffffffffff1602179055508173ffffffffffffffffffffffffffffffffffffffff168173ffffffffffffffffffffffffffffffffffffffff167f8be0079c531659141344cd1fd0a4f28419497f9722a3daafe3b4186f6b6457e060405160405180910390a35050565b6000610ed0838330610fb8565b905092915050565b60008173ffffffffffffffffffffffffffffffffffffffff169050919050565b6000610f0683836000610ff9565b905092915050565b600080602060008451602086016000885af180610f31576040513d6000823e3d81fd5b3d925060005191505060008214610f4c576001811415610f68565b60008473ffffffffffffffffffffffffffffffffffffffff163b145b15610faa57836040517f5274afe7000000000000000000000000000000000000000000000000000000008152600401610fa19190611134565b60405180910390fd5b50505050565b600033905090565b6000604051836040820152846020820152828152600b810160ff815373ffffffffffffffffffffffffffffffffffffffff6055822016925050509392505050565b6000814710156110425747826040517fcf4791810000000000000000000000000000000000000000000000000000000081526004016110399291906116f7565b60405180910390fd5b763d602d80600a3d3981f3363d3d373d3d3d363d730000008460601b60e81c176000526e5af43d82803e903d91602b57fd5bf38460781b17602052826037600984f59050600073ffffffffffffffffffffffffffffffffffffffff168173ffffffffffffffffffffffffffffffffffffffff16036110ec576040517fb06ebf3d00000000000000000000000000000000000000000000000000000000815260040160405180910390fd5b9392505050565b600073ffffffffffffffffffffffffffffffffffffffff82169050919050565b600061111e826110f3565b9050919050565b61112e81611113565b82525050565b60006020820190506111496000830184611125565b92915050565b6000604051905090565b600080fd5b600080fd5b6000610100828403121561117a5761117961115e565b5b81905092915050565b6000610100828403121561119a57611199611159565b5b60006111a884828501611163565b91505092915050565b6111ba81611113565b81146111c557600080fd5b50565b6000813590506111d7816111b1565b92915050565b6000602082840312156111f3576111f2611159565b5b6000611201848285016111c8565b91505092915050565b600061010082840312156112215761122061115e565b5b81905092915050565b6000819050919050565b61123d8161122a565b811461124857600080fd5b50565b60008135905061125a81611234565b92915050565b6000819050919050565b61127381611260565b811461127e57600080fd5b50565b6000813590506112908161126a565b92915050565b6000806000806000806101a087890312156112b4576112b3611159565b5b60006112c289828a0161120a565b9650506101006112d489828a0161124b565b9550506101206112e689828a016111c8565b9450506101406112f889828a01611281565b93505061016061130a89828a01611281565b92505061018061131c89828a01611281565b9150509295509295509295565b7f4e487b7100000000000000000000000000000000000000000000000000000000600052601160045260246000fd5b600061136382611260565b915061136e83611260565b925082820190508082111561138657611385611329565b5b92915050565b600080fd5b6000601f19601f8301169050919050565b7f4e487b7100000000000000000000000000000000000000000000000000000000600052604160045260246000fd5b6113da82611391565b810181811067ffffffffffffffff821117156113f9576113f86113a2565b5b80604052505050565b600061140c61114f565b905061141882826113d1565b919050565b61142681611260565b811461143157600080fd5b50565b6000813590506114438161141d565b92915050565b61145281611260565b811461145d57600080fd5b50565b60008135905061146f81611449565b92915050565b6000610100828403121561148c5761148b61138c565b5b611497610100611402565b905060006114a78482850161124b565b60008301525060206114bb8482850161124b565b60208301525060406114cf84828501611434565b60408301525060606114e384828501611434565b60608301525060806114f784828501611434565b60808301525060a061150b84828501611281565b60a08301525060c061151f84828501611281565b60c08301525060e061153384828501611460565b60e08301525092915050565b6000610100828403121561155657611555611159565b5b600061156484828501611475565b91505092915050565b6115768161122a565b82525050565b6000819050919050565b60006115a161159c61159784611260565b61157c565b611260565b9050919050565b6115b181611586565b82525050565b60006060820190506115cc6000830186611125565b6115d9602083018561156d565b6115e660408301846115a8565b949350505050565b600081905092915050565b50565b60006116096000836115ee565b9150611614826115f9565b600082019050919050565b600061162a826115fc565b9150819050919050565b600082825260208201905092915050565b7f4661696c656420746f2073656e642045544820746f20657363726f7700000000600082015250565b600061167b601c83611634565b915061168682611645565b602082019050919050565b600060208201905081810360008301526116aa8161166e565b9050919050565b6116ba81611260565b82525050565b60006060820190506116d56000830186611125565b6116e26020830185611125565b6116ef60408301846116b1565b949350505050565b600060408201905061170c60008301856116b1565b61171960208301846116b1565b939250505056fea2646970667358221220d258bc8e10762ae18989ef838683fbc7368cdf0c3b8245446ee474febb8ce09364736f6c634300081e00336101006040523373ffffffffffffffffffffffffffffffffffffffff1660c09073ffffffffffffffffffffffffffffffffffffffff16815250610047306100c860201b60201c565b60e09081525034801561005957600080fd5b50604051611e7b380380611e7b833981810160405281019061007b91906101ae565b81818163ffffffff1660a081815250508073ffffffffffffffffffffffffffffffffffffffff1660808173ffffffffffffffffffffffffffffffffffffffff16815250505050505061030a565b600080826040516020016100dc91906102d9565b60405160208183030381529060405290508080519060200120915050919050565b600080fd5b600063ffffffff82169050919050565b61011b81610102565b811461012657600080fd5b50565b60008151905061013881610112565b92915050565b600073ffffffffffffffffffffffffffffffffffffffff82169050919050565b60006101698261013e565b9050919050565b600061017b8261015e565b9050919050565b61018b81610170565b811461019657600080fd5b50565b6000815190506101a881610182565b92915050565b600080604083850312156101c5576101c46100fd565b5b60006101d385828601610129565b92505060206101e485828601610199565b9150509250929050565b600081905092915050565b7f3d602d80600a3d3981f3363d3d373d3d3d363d73000000000000000000000000600082015250565b600061022f6014836101ee565b915061023a826101f9565b601482019050919050565b60008160601b9050919050565b600061025d82610245565b9050919050565b600061026f82610252565b9050919050565b6102876102828261015e565b610264565b82525050565b7f5af43d82803e903d91602b57fd5bf30000000000000000000000000000000000600082015250565b60006102c3600f836101ee565b91506102ce8261028d565b600f82019050919050565b60006102e482610222565b91506102f08284610276565b6014820191506102ff826102b6565b915081905092915050565b60805160a05160c05160e051611b23610358600039600081816107340152610dc00152600081816107100152610de10152600081816107d70152610d74015260006103410152611b236000f3fe6080604052600436106100c65760003560e01c80634feb9d521161007f57806390d3252f1161005957806390d3252f146102835780639637d532146102ac578063e8ad4740146102d5578063f56cd69c14610312576100cd565b80634feb9d52146101e0578063704de3681461021d5780637f0dd1241461025a576100cd565b80630af97558146100d257806323305703146100fb5780632c11fe4f146101245780632dd310001461016157806334862b6a1461018c5780634649088b146101b7576100cd565b366100cd57005b600080fd5b3480156100de57600080fd5b506100f960048036038101906100f49190611228565b61033d565b005b34801561010757600080fd5b50610122600480360381019061011d9190611228565b610534565b005b34801561013057600080fd5b5061014b60048036038101906101469190611269565b61066a565b6040516101589190611326565b60405180910390f35b34801561016d57600080fd5b5061017661070e565b6040516101839190611389565b60405180910390f35b34801561019857600080fd5b506101a1610732565b6040516101ae91906113b3565b60405180910390f35b3480156101c357600080fd5b506101de60048036038101906101d99190611430565b610756565b005b3480156101ec57600080fd5b5061020760048036038101906102029190611269565b61088f565b6040516102149190611326565b60405180910390f35b34801561022957600080fd5b50610244600480360381019061023f9190611269565b610934565b6040516102519190611326565b60405180910390f35b34801561026657600080fd5b50610281600480360381019061027c91906114e9565b6109d4565b005b34801561028f57600080fd5b506102aa60048036038101906102a5919061155e565b610ab3565b005b3480156102b857600080fd5b506102d360048036038101906102ce91906114e9565b610bf4565b005b3480156102e157600080fd5b506102fc60048036038101906102f79190611269565b610cd2565b6040516103099190611326565b60405180910390f35b34801561031e57600080fd5b50610327610d72565b604051610334919061159b565b60405180910390f35b60007f000000000000000000000000000000000000000000000000000000000000000073ffffffffffffffffffffffffffffffffffffffff166370a08231336040518263ffffffff1660e01b81526004016103989190611389565b602060405180830381865afa1580156103b5573d6000803e3d6000fd5b505050506040513d601f19601f820116820180604052508101906103d991906115cb565b03610410576040517f48f5c3ed00000000000000000000000000000000000000000000000000000000815260040160405180910390fd5b8061041a81610d96565b82828060200135826040516020016104329190611619565b604051602081830303815290604052805190602001201461047f576040517fabab6bd700000000000000000000000000000000000000000000000000000000815260040160405180910390fd5b61049760018560e00135610e5690919063ffffffff16565b804210156104d1576040517f6f7eac2600000000000000000000000000000000000000000000000000000000815260040160405180910390fd5b6104e960028660e00135610e5690919063ffffffff16565b804210610522576040517f6f7eac2600000000000000000000000000000000000000000000000000000000815260040160405180910390fd5b61052b86610ea2565b50505050505050565b8061053e81610d96565b82828060200135826040516020016105569190611619565b60405160208183030381529060405280519060200120146105a3576040517fabab6bd700000000000000000000000000000000000000000000000000000000815260040160405180910390fd5b6105b08460400135610f12565b73ffffffffffffffffffffffffffffffffffffffff163373ffffffffffffffffffffffffffffffffffffffff161415801561062357506105f38460600135610f12565b73ffffffffffffffffffffffffffffffffffffffff163373ffffffffffffffffffffffffffffffffffffffff1614155b1561065a576040517f48f5c3ed00000000000000000000000000000000000000000000000000000000815260040160405180910390fd5b61066384610ea2565b5050505050565b6060600080838152602001908152602001600020805461068990611663565b80601f01602080910402602001604051908101604052809291908181526020018280546106b590611663565b80156107025780601f106106d757610100808354040283529160200191610702565b820191906000526020600020905b8154815290600101906020018083116106e557829003601f168201915b50505050509050919050565b7f000000000000000000000000000000000000000000000000000000000000000081565b7f000000000000000000000000000000000000000000000000000000000000000081565b806107648160600135610f12565b73ffffffffffffffffffffffffffffffffffffffff163373ffffffffffffffffffffffffffffffffffffffff16146107c8576040517f48f5c3ed00000000000000000000000000000000000000000000000000000000815260040160405180910390fd5b816107d281610d96565b6108097f00000000000000000000000000000000000000000000000000000000000000008460e00135610f1c90919063ffffffff16565b80421015610843576040517f6f7eac2600000000000000000000000000000000000000000000000000000000815260040160405180910390fd5b61084e863387610f2d565b7fc4474c2790e13695f6d2b6f1d8e164290b55370f87a542fd7711abe0a1bf40ac868660405161087f929190611694565b60405180910390a1505050505050565b60606001600083815260200190815260200160002080546108af90611663565b80601f01602080910402602001604051908101604052809291908181526020018280546108db90611663565b80156109285780601f106108fd57610100808354040283529160200191610928565b820191906000526020600020905b81548152906001019060200180831161090b57829003601f168201915b50505050509050919050565b6000602052806000526040600020600091509050805461095390611663565b80601f016020809104026020016040519081016040528092919081815260200182805461097f90611663565b80156109cc5780601f106109a1576101008083540402835291602001916109cc565b820191906000526020600020905b8154815290600101906020018083116109af57829003601f168201915b505050505081565b806109de81610d96565b6109eb8260600135610f12565b73ffffffffffffffffffffffffffffffffffffffff163373ffffffffffffffffffffffffffffffffffffffff1614610a4f576040517f48f5c3ed00000000000000000000000000000000000000000000000000000000815260040160405180910390fd5b8383600160008881526020019081526020016000209182610a719291906118a3565b50847f483d3112ecb64783c4387ebc2b4d6ec343dac57d2dd847b8fb25d97493c682288585604051610aa49291906119af565b60405180910390a25050505050565b80610ac18160400135610f12565b73ffffffffffffffffffffffffffffffffffffffff163373ffffffffffffffffffffffffffffffffffffffff1614610b25576040517f48f5c3ed00000000000000000000000000000000000000000000000000000000815260040160405180910390fd5b81610b2f81610d96565b610b4760028460e00135610e5690919063ffffffff16565b80421015610b81576040517f6f7eac2600000000000000000000000000000000000000000000000000000000815260040160405180910390fd5b610ba8610b918560800135610f12565b610b9e8660400135610f12565b8660a00135610f2d565b610bc2610bb88560400135610f12565b8560c00135610fa1565b7f6e3be9294e58d10b9c8053cfd5e09871b67e442fe394d6b0870d336b9df984a960405160405180910390a150505050565b80610bfe81610d96565b610c0b8260400135610f12565b73ffffffffffffffffffffffffffffffffffffffff163373ffffffffffffffffffffffffffffffffffffffff1614610c6f576040517f48f5c3ed00000000000000000000000000000000000000000000000000000000815260040160405180910390fd5b83836000808881526020019081526020016000209182610c909291906118a3565b50847fa3870e65776f13431dbed98ac6f948c2aa40b45d03971b2aa86a82e2410f7b398585604051610cc39291906119af565b60405180910390a25050505050565b60016020528060005260406000206000915090508054610cf190611663565b80601f0160208091040260200160405190810160405280929190818152602001828054610d1d90611663565b8015610d6a5780601f10610d3f57610100808354040283529160200191610d6a565b820191906000526020600020905b815481529060010190602001808311610d4d57829003601f168201915b505050505081565b7f000000000000000000000000000000000000000000000000000000000000000081565b6000610da182611049565b90503073ffffffffffffffffffffffffffffffffffffffff16610e05827f00000000000000000000000000000000000000000000000000000000000000007f0000000000000000000000000000000000000000000000000000000000000000611061565b73ffffffffffffffffffffffffffffffffffffffff1614610e52576040517fa269484a00000000000000000000000000000000000000000000000000000000815260040160405180910390fd5b5050565b60008083905060006020846002811115610e7357610e726119d3565b5b610e7d9190611a31565b90508082901c63ffffffff1660e083901c610e989190611a73565b9250505092915050565b610ec9610eb28260800135610f12565b610ebf8360600135610f12565b8360a00135610f2d565b610ee3610ed98260600135610f12565b8260c00135610fa1565b7ff2d860bc4f7fceae44fa48412367ec0186facf1dc99dfea591679d3ee6c930d360405160405180910390a150565b6000819050919050565b600060e083901c8201905092915050565b600073ffffffffffffffffffffffffffffffffffffffff168373ffffffffffffffffffffffffffffffffffffffff1603610f7057610f6b8282610fa1565b610f9c565b610f9b82828573ffffffffffffffffffffffffffffffffffffffff166110a29092919063ffffffff16565b5b505050565b60008273ffffffffffffffffffffffffffffffffffffffff1682604051610fc790611ad8565b60006040518083038185875af1925050503d8060008114611004576040519150601f19603f3d011682016040523d82523d6000602084013e611009565b606091505b5050905080611044576040517f8a0332d500000000000000000000000000000000000000000000000000000000815260040160405180910390fd5b505050565b60006040516101008382376101008120915050919050565b6000604051836040820152846020820152828152600b810160ff815373ffffffffffffffffffffffffffffffffffffffff6055822016925050509392505050565b61111c838473ffffffffffffffffffffffffffffffffffffffff1663a9059cbb85856040516024016110d5929190611694565b604051602081830303815290604052915060e01b6020820180517bffffffffffffffffffffffffffffffffffffffffffffffffffffffff8381831617835250505050611121565b505050565b600080602060008451602086016000885af180611144576040513d6000823e3d81fd5b3d92506000519150506000821461115f57600181141561117b565b60008473ffffffffffffffffffffffffffffffffffffffff163b145b156111bd57836040517f5274afe70000000000000000000000000000000000000000000000000000000081526004016111b49190611389565b60405180910390fd5b50505050565b600080fd5b600080fd5b6000819050919050565b6111e0816111cd565b81146111eb57600080fd5b50565b6000813590506111fd816111d7565b92915050565b600080fd5b6000610100828403121561121f5761121e611203565b5b81905092915050565b60008061012083850312156112405761123f6111c3565b5b600061124e858286016111ee565b925050602061125f85828601611208565b9150509250929050565b60006020828403121561127f5761127e6111c3565b5b600061128d848285016111ee565b91505092915050565b600081519050919050565b600082825260208201905092915050565b60005b838110156112d05780820151818401526020810190506112b5565b60008484015250505050565b6000601f19601f8301169050919050565b60006112f882611296565b61130281856112a1565b93506113128185602086016112b2565b61131b816112dc565b840191505092915050565b6000602082019050818103600083015261134081846112ed565b905092915050565b600073ffffffffffffffffffffffffffffffffffffffff82169050919050565b600061137382611348565b9050919050565b61138381611368565b82525050565b600060208201905061139e600083018461137a565b92915050565b6113ad816111cd565b82525050565b60006020820190506113c860008301846113a4565b92915050565b6113d781611368565b81146113e257600080fd5b50565b6000813590506113f4816113ce565b92915050565b6000819050919050565b61140d816113fa565b811461141857600080fd5b50565b60008135905061142a81611404565b92915050565b6000806000610140848603121561144a576114496111c3565b5b6000611458868287016113e5565b93505060206114698682870161141b565b925050604061147a86828701611208565b9150509250925092565b600080fd5b600080fd5b600080fd5b60008083601f8401126114a9576114a8611484565b5b8235905067ffffffffffffffff8111156114c6576114c5611489565b5b6020830191508360018202830111156114e2576114e161148e565b5b9250929050565b6000806000806101408587031215611504576115036111c3565b5b6000611512878288016111ee565b945050602085013567ffffffffffffffff811115611533576115326111c8565b5b61153f87828801611493565b9350935050604061155287828801611208565b91505092959194509250565b60006101008284031215611575576115746111c3565b5b600061158384828501611208565b91505092915050565b611595816113fa565b82525050565b60006020820190506115b0600083018461158c565b92915050565b6000815190506115c581611404565b92915050565b6000602082840312156115e1576115e06111c3565b5b60006115ef848285016115b6565b91505092915050565b6000819050919050565b61161361160e826111cd565b6115f8565b82525050565b60006116258284611602565b60208201915081905092915050565b7f4e487b7100000000000000000000000000000000000000000000000000000000600052602260045260246000fd5b6000600282049050600182168061167b57607f821691505b60208210810361168e5761168d611634565b5b50919050565b60006040820190506116a9600083018561137a565b6116b6602083018461158c565b9392505050565b600082905092915050565b7f4e487b7100000000000000000000000000000000000000000000000000000000600052604160045260246000fd5b60008190508160005260206000209050919050565b60006020601f8301049050919050565b600082821b905092915050565b6000600883026117597fffffffffffffffffffffffffffffffffffffffffffffffffffffffffffffffff8261171c565b611763868361171c565b95508019841693508086168417925050509392505050565b6000819050919050565b60006117a061179b611796846113fa565b61177b565b6113fa565b9050919050565b6000819050919050565b6117ba83611785565b6117ce6117c6826117a7565b848454611729565b825550505050565b600090565b6117e36117d6565b6117ee8184846117b1565b505050565b5b81811015611812576118076000826117db565b6001810190506117f4565b5050565b601f82111561185757611828816116f7565b6118318461170c565b81016020851015611840578190505b61185461184c8561170c565b8301826117f3565b50505b505050565b600082821c905092915050565b600061187a6000198460080261185c565b1980831691505092915050565b60006118938383611869565b9150826002028217905092915050565b6118ad83836116bd565b67ffffffffffffffff8111156118c6576118c56116c8565b5b6118d08254611663565b6118db828285611816565b6000601f83116001811461190a57600084156118f8578287013590505b6119028582611887565b86555061196a565b601f198416611918866116f7565b60005b828110156119405784890135825560018201915060208501945060208101905061191b565b8683101561195d5784890135611959601f891682611869565b8355505b6001600288020188555050505b50505050505050565b82818337600083830152505050565b600061198e83856112a1565b935061199b838584611973565b6119a4836112dc565b840190509392505050565b600060208201905081810360008301526119ca818486611982565b90509392505050565b7f4e487b7100000000000000000000000000000000000000000000000000000000600052602160045260246000fd5b7f4e487b7100000000000000000000000000000000000000000000000000000000600052601160045260246000fd5b6000611a3c826113fa565b9150611a47836113fa565b9250828202611a55816113fa565b91508282048414831517611a6c57611a6b611a02565b5b5092915050565b6000611a7e826113fa565b9150611a89836113fa565b9250828201905080821115611aa157611aa0611a02565b5b92915050565b600081905092915050565b50565b6000611ac2600083611aa7565b9150611acd82611ab2565b600082019050919050565b6000611ae382611ab5565b915081905091905056fea26469706673582212204f5684967aea7342a8abc0a0ae89ba96cf5ce13b0d4f4d450a49fcccb57e927c64736f6c634300081e00336101006040523373ffffffffffffffffffffffffffffffffffffffff1660c09073ffffffffffffffffffffffffffffffffffffffff16815250610047306100c860201b60201c565b60e09081525034801561005957600080fd5b50604051611e5a380380611e5a833981810160405281019061007b91906101ae565b81818163ffffffff1660a081815250508073ffffffffffffffffffffffffffffffffffffffff1660808173ffffffffffffffffffffffffffffffffffffffff16815250505050505061030a565b600080826040516020016100dc91906102d9565b60405160208183030381529060405290508080519060200120915050919050565b600080fd5b600063ffffffff82169050919050565b61011b81610102565b811461012657600080fd5b50565b60008151905061013881610112565b92915050565b600073ffffffffffffffffffffffffffffffffffffffff82169050919050565b60006101698261013e565b9050919050565b600061017b8261015e565b9050919050565b61018b81610170565b811461019657600080fd5b50565b6000815190506101a881610182565b92915050565b600080604083850312156101c5576101c46100fd565b5b60006101d385828601610129565b92505060206101e485828601610199565b9150509250929050565b600081905092915050565b7f3d602d80600a3d3981f3363d3d373d3d3d363d73000000000000000000000000600082015250565b600061022f6014836101ee565b915061023a826101f9565b601482019050919050565b60008160601b9050919050565b600061025d82610245565b9050919050565b600061026f82610252565b9050919050565b6102876102828261015e565b610264565b82525050565b7f5af43d82803e903d91602b57fd5bf30000000000000000000000000000000000600082015250565b60006102c3600f836101ee565b91506102ce8261028d565b600f82019050919050565b60006102e482610222565b91506102f08284610276565b6014820191506102ff826102b6565b915081905092915050565b60805160a05160c05160e051611b02610358600039600081816106880152610d9f0152600081816106640152610dc001526000818161072b0152610d53015260006103410152611b026000f3fe6080604052600436106100c65760003560e01c80634feb9d521161007f57806390d3252f1161005957806390d3252f146102835780639637d532146102ac578063e8ad4740146102d5578063f56cd69c14610312576100cd565b80634feb9d52146101e0578063704de3681461021d5780637f0dd1241461025a576100cd565b80630af97558146100d257806323305703146100fb5780632c11fe4f146101245780632dd310001461016157806334862b6a1461018c5780634649088b146101b7576100cd565b366100cd57005b600080fd5b3480156100de57600080fd5b506100f960048036038101906100f49190611207565b61033d565b005b34801561010757600080fd5b50610122600480360381019061011d9190611207565b610534565b005b34801561013057600080fd5b5061014b60048036038101906101469190611248565b6105bd565b6040516101589190611305565b60405180910390f35b34801561016d57600080fd5b50610176610662565b6040516101839190611368565b60405180910390f35b34801561019857600080fd5b506101a1610686565b6040516101ae9190611392565b60405180910390f35b3480156101c357600080fd5b506101de60048036038101906101d9919061140f565b6106aa565b005b3480156101ec57600080fd5b5061020760048036038101906102029190611248565b6107e3565b6040516102149190611305565b60405180910390f35b34801561022957600080fd5b50610244600480360381019061023f9190611248565b610887565b6040516102519190611305565b60405180910390f35b34801561026657600080fd5b50610281600480360381019061027c91906114c8565b610927565b005b34801561028f57600080fd5b506102aa60048036038101906102a5919061153d565b610a4b565b005b3480156102b857600080fd5b506102d360048036038101906102ce91906114c8565b610b8c565b005b3480156102e157600080fd5b506102fc60048036038101906102f79190611248565b610cb1565b6040516103099190611305565b60405180910390f35b34801561031e57600080fd5b50610327610d51565b604051610334919061157a565b60405180910390f35b60007f000000000000000000000000000000000000000000000000000000000000000073ffffffffffffffffffffffffffffffffffffffff166370a08231336040518263ffffffff1660e01b81526004016103989190611368565b602060405180830381865afa1580156103b5573d6000803e3d6000fd5b505050506040513d601f19601f820116820180604052508101906103d991906115aa565b03610410576040517f48f5c3ed00000000000000000000000000000000000000000000000000000000815260040160405180910390fd5b8061041a81610d75565b828280602001358260405160200161043291906115f8565b604051602081830303815290604052805190602001201461047f576040517fabab6bd700000000000000000000000000000000000000000000000000000000815260040160405180910390fd5b61049760018560e00135610e3590919063ffffffff16565b804210156104d1576040517f6f7eac2600000000000000000000000000000000000000000000000000000000815260040160405180910390fd5b6104e960028660e00135610e3590919063ffffffff16565b804210610522576040517f6f7eac2600000000000000000000000000000000000000000000000000000000815260040160405180910390fd5b61052b86610e81565b50505050505050565b8061053e81610d75565b61054b8260600135610ef1565b73ffffffffffffffffffffffffffffffffffffffff163373ffffffffffffffffffffffffffffffffffffffff16146105af576040517f48f5c3ed00000000000000000000000000000000000000000000000000000000815260040160405180910390fd5b6105b882610e81565b505050565b60606001600083815260200190815260200160002080546105dd90611642565b80601f016020809104026020016040519081016040528092919081815260200182805461060990611642565b80156106565780601f1061062b57610100808354040283529160200191610656565b820191906000526020600020905b81548152906001019060200180831161063957829003601f168201915b50505050509050919050565b7f000000000000000000000000000000000000000000000000000000000000000081565b7f000000000000000000000000000000000000000000000000000000000000000081565b806106b88160600135610ef1565b73ffffffffffffffffffffffffffffffffffffffff163373ffffffffffffffffffffffffffffffffffffffff161461071c576040517f48f5c3ed00000000000000000000000000000000000000000000000000000000815260040160405180910390fd5b8161072681610d75565b61075d7f00000000000000000000000000000000000000000000000000000000000000008460e00135610efb90919063ffffffff16565b80421015610797576040517f6f7eac2600000000000000000000000000000000000000000000000000000000815260040160405180910390fd5b6107a2863387610f0c565b7fc4474c2790e13695f6d2b6f1d8e164290b55370f87a542fd7711abe0a1bf40ac86866040516107d3929190611673565b60405180910390a1505050505050565b6060600080838152602001908152602001600020805461080290611642565b80601f016020809104026020016040519081016040528092919081815260200182805461082e90611642565b801561087b5780601f106108505761010080835404028352916020019161087b565b820191906000526020600020905b81548152906001019060200180831161085e57829003601f168201915b50505050509050919050565b600160205280600052604060002060009150905080546108a690611642565b80601f01602080910402602001604051908101604052809291908181526020018280546108d290611642565b801561091f5780601f106108f45761010080835404028352916020019161091f565b820191906000526020600020905b81548152906001019060200180831161090257829003601f168201915b505050505081565b8061093181610d75565b61093e8260400135610ef1565b73ffffffffffffffffffffffffffffffffffffffff163373ffffffffffffffffffffffffffffffffffffffff16141580156109b157506109818260600135610ef1565b73ffffffffffffffffffffffffffffffffffffffff163373ffffffffffffffffffffffffffffffffffffffff1614155b156109e8576040517f48f5c3ed00000000000000000000000000000000000000000000000000000000815260040160405180910390fd5b83836000808881526020019081526020016000209182610a09929190611882565b50847f483d3112ecb64783c4387ebc2b4d6ec343dac57d2dd847b8fb25d97493c682288585604051610a3c92919061198e565b60405180910390a25050505050565b80610a598160600135610ef1565b73ffffffffffffffffffffffffffffffffffffffff163373ffffffffffffffffffffffffffffffffffffffff1614610abd576040517f48f5c3ed00000000000000000000000000000000000000000000000000000000815260040160405180910390fd5b81610ac781610d75565b610adf60028460e00135610e3590919063ffffffff16565b80421015610b19576040517f6f7eac2600000000000000000000000000000000000000000000000000000000815260040160405180910390fd5b610b40610b298560800135610ef1565b610b368660600135610ef1565b8660a00135610f0c565b610b5a610b508560600135610ef1565b8560c00135610f80565b7f6e3be9294e58d10b9c8053cfd5e09871b67e442fe394d6b0870d336b9df984a960405160405180910390a150505050565b80610b9681610d75565b610ba38260400135610ef1565b73ffffffffffffffffffffffffffffffffffffffff163373ffffffffffffffffffffffffffffffffffffffff1614158015610c165750610be68260600135610ef1565b73ffffffffffffffffffffffffffffffffffffffff163373ffffffffffffffffffffffffffffffffffffffff1614155b15610c4d576040517f48f5c3ed00000000000000000000000000000000000000000000000000000000815260040160405180910390fd5b8383600160008881526020019081526020016000209182610c6f929190611882565b50847fa3870e65776f13431dbed98ac6f948c2aa40b45d03971b2aa86a82e2410f7b398585604051610ca292919061198e565b60405180910390a25050505050565b60006020528060005260406000206000915090508054610cd090611642565b80601f0160208091040260200160405190810160405280929190818152602001828054610cfc90611642565b8015610d495780601f10610d1e57610100808354040283529160200191610d49565b820191906000526020600020905b815481529060010190602001808311610d2c57829003601f168201915b505050505081565b7f000000000000000000000000000000000000000000000000000000000000000081565b6000610d8082611028565b90503073ffffffffffffffffffffffffffffffffffffffff16610de4827f00000000000000000000000000000000000000000000000000000000000000007f0000000000000000000000000000000000000000000000000000000000000000611040565b73ffffffffffffffffffffffffffffffffffffffff1614610e31576040517fa269484a00000000000000000000000000000000000000000000000000000000815260040160405180910390fd5b5050565b60008083905060006020846002811115610e5257610e516119b2565b5b610e5c9190611a10565b90508082901c63ffffffff1660e083901c610e779190611a52565b9250505092915050565b610ea8610e918260800135610ef1565b610e9e8360400135610ef1565b8360a00135610f0c565b610ec2610eb88260600135610ef1565b8260c00135610f80565b7ff2d860bc4f7fceae44fa48412367ec0186facf1dc99dfea591679d3ee6c930d360405160405180910390a150565b6000819050919050565b600060e083901c8201905092915050565b600073ffffffffffffffffffffffffffffffffffffffff168373ffffffffffffffffffffffffffffffffffffffff1603610f4f57610f4a8282610f80565b610f7b565b610f7a82828573ffffffffffffffffffffffffffffffffffffffff166110819092919063ffffffff16565b5b505050565b60008273ffffffffffffffffffffffffffffffffffffffff1682604051610fa690611ab7565b60006040518083038185875af1925050503d8060008114610fe3576040519150601f19603f3d011682016040523d82523d6000602084013e610fe8565b606091505b5050905080611023576040517f8a0332d500000000000000000000000000000000000000000000000000000000815260040160405180910390fd5b505050565b60006040516101008382376101008120915050919050565b6000604051836040820152846020820152828152600b810160ff815373ffffffffffffffffffffffffffffffffffffffff6055822016925050509392505050565b6110fb838473ffffffffffffffffffffffffffffffffffffffff1663a9059cbb85856040516024016110b4929190611673565b604051602081830303815290604052915060e01b6020820180517bffffffffffffffffffffffffffffffffffffffffffffffffffffffff8381831617835250505050611100565b505050565b600080602060008451602086016000885af180611123576040513d6000823e3d81fd5b3d92506000519150506000821461113e57600181141561115a565b60008473ffffffffffffffffffffffffffffffffffffffff163b145b1561119c57836040517f5274afe70000000000000000000000000000000000000000000000000000000081526004016111939190611368565b60405180910390fd5b50505050565b600080fd5b600080fd5b6000819050919050565b6111bf816111ac565b81146111ca57600080fd5b50565b6000813590506111dc816111b6565b92915050565b600080fd5b600061010082840312156111fe576111fd6111e2565b5b81905092915050565b600080610120838503121561121f5761121e6111a2565b5b600061122d858286016111cd565b925050602061123e858286016111e7565b9150509250929050565b60006020828403121561125e5761125d6111a2565b5b600061126c848285016111cd565b91505092915050565b600081519050919050565b600082825260208201905092915050565b60005b838110156112af578082015181840152602081019050611294565b60008484015250505050565b6000601f19601f8301169050919050565b60006112d782611275565b6112e18185611280565b93506112f1818560208601611291565b6112fa816112bb565b840191505092915050565b6000602082019050818103600083015261131f81846112cc565b905092915050565b600073ffffffffffffffffffffffffffffffffffffffff82169050919050565b600061135282611327565b9050919050565b61136281611347565b82525050565b600060208201905061137d6000830184611359565b92915050565b61138c816111ac565b82525050565b60006020820190506113a76000830184611383565b92915050565b6113b681611347565b81146113c157600080fd5b50565b6000813590506113d3816113ad565b92915050565b6000819050919050565b6113ec816113d9565b81146113f757600080fd5b50565b600081359050611409816113e3565b92915050565b60008060006101408486031215611429576114286111a2565b5b6000611437868287016113c4565b9350506020611448868287016113fa565b9250506040611459868287016111e7565b9150509250925092565b600080fd5b600080fd5b600080fd5b60008083601f84011261148857611487611463565b5b8235905067ffffffffffffffff8111156114a5576114a4611468565b5b6020830191508360018202830111156114c1576114c061146d565b5b9250929050565b60008060008061014085870312156114e3576114e26111a2565b5b60006114f1878288016111cd565b945050602085013567ffffffffffffffff811115611512576115116111a7565b5b61151e87828801611472565b93509350506040611531878288016111e7565b91505092959194509250565b60006101008284031215611554576115536111a2565b5b6000611562848285016111e7565b91505092915050565b611574816113d9565b82525050565b600060208201905061158f600083018461156b565b92915050565b6000815190506115a4816113e3565b92915050565b6000602082840312156115c0576115bf6111a2565b5b60006115ce84828501611595565b91505092915050565b6000819050919050565b6115f26115ed826111ac565b6115d7565b82525050565b600061160482846115e1565b60208201915081905092915050565b7f4e487b7100000000000000000000000000000000000000000000000000000000600052602260045260246000fd5b6000600282049050600182168061165a57607f821691505b60208210810361166d5761166c611613565b5b50919050565b60006040820190506116886000830185611359565b611695602083018461156b565b9392505050565b600082905092915050565b7f4e487b7100000000000000000000000000000000000000000000000000000000600052604160045260246000fd5b60008190508160005260206000209050919050565b60006020601f8301049050919050565b600082821b905092915050565b6000600883026117387fffffffffffffffffffffffffffffffffffffffffffffffffffffffffffffffff826116fb565b61174286836116fb565b95508019841693508086168417925050509392505050565b6000819050919050565b600061177f61177a611775846113d9565b61175a565b6113d9565b9050919050565b6000819050919050565b61179983611764565b6117ad6117a582611786565b848454611708565b825550505050565b600090565b6117c26117b5565b6117cd818484611790565b505050565b5b818110156117f1576117e66000826117ba565b6001810190506117d3565b5050565b601f82111561183657611807816116d6565b611810846116eb565b8101602085101561181f578190505b61183361182b856116eb565b8301826117d2565b50505b505050565b600082821c905092915050565b60006118596000198460080261183b565b1980831691505092915050565b60006118728383611848565b9150826002028217905092915050565b61188c838361169c565b67ffffffffffffffff8111156118a5576118a46116a7565b5b6118af8254611642565b6118ba8282856117f5565b6000601f8311600181146118e957600084156118d7578287013590505b6118e18582611866565b865550611949565b601f1984166118f7866116d6565b60005b8281101561191f578489013582556001820191506020850194506020810190506118fa565b8683101561193c5784890135611938601f891682611848565b8355505b6001600288020188555050505b50505050505050565b82818337600083830152505050565b600061196d8385611280565b935061197a838584611952565b611983836112bb565b840190509392505050565b600060208201905081810360008301526119a9818486611961565b90509392505050565b7f4e487b7100000000000000000000000000000000000000000000000000000000600052602160045260246000fd5b7f4e487b7100000000000000000000000000000000000000000000000000000000600052601160045260246000fd5b6000611a1b826113d9565b9150611a26836113d9565b9250828202611a34816113d9565b91508282048414831517611a4b57611a4a6119e1565b5b5092915050565b6000611a5d826113d9565b9150611a68836113d9565b9250828201905080821115611a8057611a7f6119e1565b5b92915050565b600081905092915050565b50565b6000611aa1600083611a86565b9150611aac82611a91565b600082019050919050565b6000611ac282611a94565b915081905091905056fea2646970667358221220eea1d22f86b690fdbad57ed3aeabdf38825a74629b18db7898196f3b69b8e29d64736f6c634300081e0033",
  "linkReferences": {},
  "deployedLinkReferences": {}
}