{
  "_format": "hh-sol-artifact-1",
  "contractName": "EscrowSrc",
  "sourceName": "contracts/EscrowSrc.sol",
  "abi": [
    {
      "inputs": [
        {
          "internalType": "uint32",
          "name": "rescueDelay",
          "type": "uint32"
        },
        {
          "internalType": "contract IERC20",
          "name": "accessToken",
          "type": "address"
        }
      ],
      "stateMutability": "nonpayable",
      "type": "constructor"
    },
    {
      "inputs": [],
      "name": "InvalidCaller",
      "type": "error"
    },
    {
      "inputs": [],
      "name": "InvalidImmutables",
      "type": "error"
    },
    {
      "inputs": [],
      "name": "InvalidSecret",
      "type": "error"
    },
    {
      "inputs": [],
      "name": "InvalidTime",
      "type": "error"
    },
    {
      "inputs": [],
      "name": "NativeTokenSendingFailure",
      "type": "error"
    },
    {
      "inputs": [
        {
          "internalType": "address",
          "name": "token",
          "type": "address"
        }
      ],
      "name": "SafeERC20FailedOperation",
      "type": "error"
    },
    {
      "anonymous": false,
      "inputs": [],
      "name": "EscrowCancelled",
      "type": "event"
    },
    {
      "anonymous": false,
      "inputs": [],
      "name": "EscrowWithdrawal",
      "type": "event"
    },
    {
      "anonymous": false,
      "inputs": [
        {
          "indexed": false,
          "internalType": "address",
          "name": "token",
          "type": "address"
        },
        {
          "indexed": false,
          "internalType": "uint256",
          "name": "amount",
          "type": "uint256"
        }
      ],
      "name": "FundsRescued",
      "type": "event"
    },
    {
      "anonymous": false,
      "inputs": [
        {
          "indexed": true,
          "internalType": "bytes32",
          "name": "hashlock",
          "type": "bytes32"
        },
        {
          "indexed": false,
          "internalType": "string",
          "name": "cardanoAddress",
          "type": "string"
        }
      ],
      "name": "cardanoAddressRecorded",
      "type": "event"
    },
    {
      "anonymous": false,
      "inputs": [
        {
          "indexed": true,
          "internalType": "bytes32",
          "name": "hashlock",
          "type": "bytes32"
        },
        {
          "indexed": false,
          "internalType": "string",
          "name": "cardanoTxHash",
          "type": "string"
        }
      ],
      "name": "cardanoTxHashRecorded",
      "type": "event"
    },
    {
      "inputs": [],
      "name": "FACTORY",
      "outputs": [
        {
          "internalType": "address",
          "name": "",
          "type": "address"
        }
      ],
      "stateMutability": "view",
      "type": "function"
    },
    {
      "inputs": [],
      "name": "PROXY_BYTECODE_HASH",
      "outputs": [
        {
          "internalType": "bytes32",
          "name": "",
          "type": "bytes32"
        }
      ],
      "stateMutability": "view",
      "type": "function"
    },
    {
      "inputs": [],
      "name": "RESCUE_DELAY",
      "outputs": [
        {
          "internalType": "uint256",
          "name": "",
          "type": "uint256"
        }
      ],
      "stateMutability": "view",
      "type": "function"
    },
    {
      "inputs": [
        {
          "components": [
            {
              "internalType": "bytes32",
              "name": "orderHash",
              "type": "bytes32"
            },
            {
              "internalType": "bytes32",
              "name": "hashlock",
              "type": "bytes32"
            },
            {
              "internalType": "Address",
              "name": "maker",
              "type": "uint256"
            },
            {
              "internalType": "Address",
              "name": "taker",
              "type": "uint256"
            },
            {
              "internalType": "Address",
              "name": "token",
              "type": "uint256"
            },
            {
              "internalType": "uint256",
              "name": "amount",
              "type": "uint256"
            },
            {
              "internalType": "uint256",
              "name": "safetyDeposit",
              "type": "uint256"
            },
            {
              "internalType": "Timelocks",
              "name": "timelocks",
              "type": "uint256"
            }
          ],
          "internalType": "struct IBaseEscrow.Immutables",
          "name": "immutables",
          "type": "tuple"
        }
      ],
      "name": "cancel",
      "outputs": [],
      "stateMutability": "nonpayable",
      "type": "function"
    },
    {
      "inputs": [
        {
          "internalType": "bytes32",
          "name": "",
          "type": "bytes32"
        }
      ],
      "name": "cardanoAddresses",
      "outputs": [
        {
          "internalType": "string",
          "name": "",
          "type": "string"
        }
      ],
      "stateMutability": "view",
      "type": "function"
    },
    {
      "inputs": [
        {
          "internalType": "bytes32",
          "name": "",
          "type": "bytes32"
        }
      ],
      "name": "cardanoTxHashes",
      "outputs": [
        {
          "internalType": "string",
          "name": "",
          "type": "string"
        }
      ],
      "stateMutability": "view",
      "type": "function"
    },
    {
      "inputs": [
        {
          "internalType": "bytes32",
          "name": "hashlock",
          "type": "bytes32"
        }
      ],
      "name": "getcardanoAddress",
      "outputs": [
        {
          "internalType": "string",
          "name": "",
          "type": "string"
        }
      ],
      "stateMutability": "view",
      "type": "function"
    },
    {
      "inputs": [
        {
          "internalType": "bytes32",
          "name": "hashlock",
          "type": "bytes32"
        }
      ],
      "name": "getcardanoTxHash",
      "outputs": [
        {
          "internalType": "string",
          "name": "",
          "type": "string"
        }
      ],
      "stateMutability": "view",
      "type": "function"
    },
    {
      "inputs": [
        {
          "internalType": "bytes32",
          "name": "secret",
          "type": "bytes32"
        },
        {
          "components": [
            {
              "internalType": "bytes32",
              "name": "orderHash",
              "type": "bytes32"
            },
            {
              "internalType": "bytes32",
              "name": "hashlock",
              "type": "bytes32"
            },
            {
              "internalType": "Address",
              "name": "maker",
              "type": "uint256"
            },
            {
              "internalType": "Address",
              "name": "taker",
              "type": "uint256"
            },
            {
              "internalType": "Address",
              "name": "token",
              "type": "uint256"
            },
            {
              "internalType": "uint256",
              "name": "amount",
              "type": "uint256"
            },
            {
              "internalType": "uint256",
              "name": "safetyDeposit",
              "type": "uint256"
            },
            {
              "internalType": "Timelocks",
              "name": "timelocks",
              "type": "uint256"
            }
          ],
          "internalType": "struct IBaseEscrow.Immutables",
          "name": "immutables",
          "type": "tuple"
        }
      ],
      "name": "publicWithdraw",
      "outputs": [],
      "stateMutability": "nonpayable",
      "type": "function"
    },
    {
      "inputs": [
        {
          "internalType": "bytes32",
          "name": "hashlock",
          "type": "bytes32"
        },
        {
          "internalType": "string",
          "name": "cardanoAddress",
          "type": "string"
        },
        {
          "components": [
            {
              "internalType": "bytes32",
              "name": "orderHash",
              "type": "bytes32"
            },
            {
              "internalType": "bytes32",
              "name": "hashlock",
              "type": "bytes32"
            },
            {
              "internalType": "Address",
              "name": "maker",
              "type": "uint256"
            },
            {
              "internalType": "Address",
              "name": "taker",
              "type": "uint256"
            },
            {
              "internalType": "Address",
              "name": "token",
              "type": "uint256"
            },
            {
              "internalType": "uint256",
              "name": "amount",
              "type": "uint256"
            },
            {
              "internalType": "uint256",
              "name": "safetyDeposit",
              "type": "uint256"
            },
            {
              "internalType": "Timelocks",
              "name": "timelocks",
              "type": "uint256"
            }
          ],
          "internalType": "struct IBaseEscrow.Immutables",
          "name": "immutables",
          "type": "tuple"
        }
      ],
      "name": "recordcardanoAddress",
      "outputs": [],
      "stateMutability": "nonpayable",
      "type": "function"
    },
    {
      "inputs": [
        {
          "internalType": "bytes32",
          "name": "hashlock",
          "type": "bytes32"
        },
        {
          "internalType": "string",
          "name": "cardanoTxHash",
          "type": "string"
        },
        {
          "components": [
            {
              "internalType": "bytes32",
              "name": "orderHash",
              "type": "bytes32"
            },
            {
              "internalType": "bytes32",
              "name": "hashlock",
              "type": "bytes32"
            },
            {
              "internalType": "Address",
              "name": "maker",
              "type": "uint256"
            },
            {
              "internalType": "Address",
              "name": "taker",
              "type": "uint256"
            },
            {
              "internalType": "Address",
              "name": "token",
              "type": "uint256"
            },
            {
              "internalType": "uint256",
              "name": "amount",
              "type": "uint256"
            },
            {
              "internalType": "uint256",
              "name": "safetyDeposit",
              "type": "uint256"
            },
            {
              "internalType": "Timelocks",
              "name": "timelocks",
              "type": "uint256"
            }
          ],
          "internalType": "struct IBaseEscrow.Immutables",
          "name": "immutables",
          "type": "tuple"
        }
      ],
      "name": "recordcardanoTx",
      "outputs": [],
      "stateMutability": "nonpayable",
      "type": "function"
    },
    {
      "inputs": [
        {
          "internalType": "address",
          "name": "token",
          "type": "address"
        },
        {
          "internalType": "uint256",
          "name": "amount",
          "type": "uint256"
        },
        {
          "components": [
            {
              "internalType": "bytes32",
              "name": "orderHash",
              "type": "bytes32"
            },
            {
              "internalType": "bytes32",
              "name": "hashlock",
              "type": "bytes32"
            },
            {
              "internalType": "Address",
              "name": "maker",
              "type": "uint256"
            },
            {
              "internalType": "Address",
              "name": "taker",
              "type": "uint256"
            },
            {
              "internalType": "Address",
              "name": "token",
              "type": "uint256"
            },
            {
              "internalType": "uint256",
              "name": "amount",
              "type": "uint256"
            },
            {
              "internalType": "uint256",
              "name": "safetyDeposit",
              "type": "uint256"
            },
            {
              "internalType": "Timelocks",
              "name": "timelocks",
              "type": "uint256"
            }
          ],
          "internalType": "struct IBaseEscrow.Immutables",
          "name": "immutables",
          "type": "tuple"
        }
      ],
      "name": "rescueFunds",
      "outputs": [],
      "stateMutability": "nonpayable",
      "type": "function"
    },
    {
      "inputs": [
        {
          "internalType": "bytes32",
          "name": "secret",
          "type": "bytes32"
        },
        {
          "components": [
            {
              "internalType": "bytes32",
              "name": "orderHash",
              "type": "bytes32"
            },
            {
              "internalType": "bytes32",
              "name": "hashlock",
              "type": "bytes32"
            },
            {
              "internalType": "Address",
              "name": "maker",
              "type": "uint256"
            },
            {
              "internalType": "Address",
              "name": "taker",
              "type": "uint256"
            },
            {
              "internalType": "Address",
              "name": "token",
              "type": "uint256"
            },
            {
              "internalType": "uint256",
              "name": "amount",
              "type": "uint256"
            },
            {
              "internalType": "uint256",
              "name": "safetyDeposit",
              "type": "uint256"
            },
            {
              "internalType": "Timelocks",
              "name": "timelocks",
              "type": "uint256"
            }
          ],
          "internalType": "struct IBaseEscrow.Immutables",
          "name": "immutables",
          "type": "tuple"
        }
      ],
      "name": "withdraw",
      "outputs": [],
      "stateMutability": "nonpayable",
      "type": "function"
    },
    {
      "stateMutability": "payable",
      "type": "receive"
    }
  ],
  "bytecode": "0x6101006040523373ffffffffffffffffffffffffffffffffffffffff1660c09073ffffffffffffffffffffffffffffffffffffffff16815250610047306100c860201b60201c565b60e09081525034801561005957600080fd5b50604051611e7b380380611e7b833981810160405281019061007b91906101ae565b81818163ffffffff1660a081815250508073ffffffffffffffffffffffffffffffffffffffff1660808173ffffffffffffffffffffffffffffffffffffffff16815250505050505061030a565b600080826040516020016100dc91906102d9565b60405160208183030381529060405290508080519060200120915050919050565b600080fd5b600063ffffffff82169050919050565b61011b81610102565b811461012657600080fd5b50565b60008151905061013881610112565b92915050565b600073ffffffffffffffffffffffffffffffffffffffff82169050919050565b60006101698261013e565b9050919050565b600061017b8261015e565b9050919050565b61018b81610170565b811461019657600080fd5b50565b6000815190506101a881610182565b92915050565b600080604083850312156101c5576101c46100fd565b5b60006101d385828601610129565b92505060206101e485828601610199565b9150509250929050565b600081905092915050565b7f3d602d80600a3d3981f3363d3d373d3d3d363d73000000000000000000000000600082015250565b600061022f6014836101ee565b915061023a826101f9565b601482019050919050565b60008160601b9050919050565b600061025d82610245565b9050919050565b600061026f82610252565b9050919050565b6102876102828261015e565b610264565b82525050565b7f5af43d82803e903d91602b57fd5bf30000000000000000000000000000000000600082015250565b60006102c3600f836101ee565b91506102ce8261028d565b600f82019050919050565b60006102e482610222565b91506102f08284610276565b6014820191506102ff826102b6565b915081905092915050565b60805160a05160c05160e051611b23610358600039600081816107340152610dc00152600081816107100152610de10152600081816107d70152610d74015260006103410152611b236000f3fe6080604052600436106100c65760003560e01c80634feb9d521161007f57806390d3252f1161005957806390d3252f146102835780639637d532146102ac578063e8ad4740146102d5578063f56cd69c14610312576100cd565b80634feb9d52146101e0578063704de3681461021d5780637f0dd1241461025a576100cd565b80630af97558146100d257806323305703146100fb5780632c11fe4f146101245780632dd310001461016157806334862b6a1461018c5780634649088b146101b7576100cd565b366100cd57005b600080fd5b3480156100de57600080fd5b506100f960048036038101906100f49190611228565b61033d565b005b34801561010757600080fd5b50610122600480360381019061011d9190611228565b610534565b005b34801561013057600080fd5b5061014b60048036038101906101469190611269565b61066a565b6040516101589190611326565b60405180910390f35b34801561016d57600080fd5b5061017661070e565b6040516101839190611389565b60405180910390f35b34801561019857600080fd5b506101a1610732565b6040516101ae91906113b3565b60405180910390f35b3480156101c357600080fd5b506101de60048036038101906101d99190611430565b610756565b005b3480156101ec57600080fd5b5061020760048036038101906102029190611269565b61088f565b6040516102149190611326565b60405180910390f35b34801561022957600080fd5b50610244600480360381019061023f9190611269565b610934565b6040516102519190611326565b60405180910390f35b34801561026657600080fd5b50610281600480360381019061027c91906114e9565b6109d4565b005b34801561028f57600080fd5b506102aa60048036038101906102a5919061155e565b610ab3565b005b3480156102b857600080fd5b506102d360048036038101906102ce91906114e9565b610bf4565b005b3480156102e157600080fd5b506102fc60048036038101906102f79190611269565b610cd2565b6040516103099190611326565b60405180910390f35b34801561031e57600080fd5b50610327610d72565b604051610334919061159b565b60405180910390f35b60007f000000000000000000000000000000000000000000000000000000000000000073ffffffffffffffffffffffffffffffffffffffff166370a08231336040518263ffffffff1660e01b81526004016103989190611389565b602060405180830381865afa1580156103b5573d6000803e3d6000fd5b505050506040513d601f19601f820116820180604052508101906103d991906115cb565b03610410576040517f48f5c3ed00000000000000000000000000000000000000000000000000000000815260040160405180910390fd5b8061041a81610d96565b82828060200135826040516020016104329190611619565b604051602081830303815290604052805190602001201461047f576040517fabab6bd700000000000000000000000000000000000000000000000000000000815260040160405180910390fd5b61049760018560e00135610e5690919063ffffffff16565b804210156104d1576040517f6f7eac2600000000000000000000000000000000000000000000000000000000815260040160405180910390fd5b6104e960028660e00135610e5690919063ffffffff16565b804210610522576040517f6f7eac2600000000000000000000000000000000000000000000000000000000815260040160405180910390fd5b61052b86610ea2565b50505050505050565b8061053e81610d96565b82828060200135826040516020016105569190611619565b60405160208183030381529060405280519060200120146105a3576040517fabab6bd700000000000000000000000000000000000000000000000000000000815260040160405180910390fd5b6105b08460400135610f12565b73ffffffffffffffffffffffffffffffffffffffff163373ffffffffffffffffffffffffffffffffffffffff161415801561062357506105f38460600135610f12565b73ffffffffffffffffffffffffffffffffffffffff163373ffffffffffffffffffffffffffffffffffffffff1614155b1561065a576040517f48f5c3ed00000000000000000000000000000000000000000000000000000000815260040160405180910390fd5b61066384610ea2565b5050505050565b6060600080838152602001908152602001600020805461068990611663565b80601f01602080910402602001604051908101604052809291908181526020018280546106b590611663565b80156107025780601f106106d757610100808354040283529160200191610702565b820191906000526020600020905b8154815290600101906020018083116106e557829003601f168201915b50505050509050919050565b7f000000000000000000000000000000000000000000000000000000000000000081565b7f000000000000000000000000000000000000000000000000000000000000000081565b806107648160600135610f12565b73ffffffffffffffffffffffffffffffffffffffff163373ffffffffffffffffffffffffffffffffffffffff16146107c8576040517f48f5c3ed00000000000000000000000000000000000000000000000000000000815260040160405180910390fd5b816107d281610d96565b6108097f00000000000000000000000000000000000000000000000000000000000000008460e00135610f1c90919063ffffffff16565b80421015610843576040517f6f7eac2600000000000000000000000000000000000000000000000000000000815260040160405180910390fd5b61084e863387610f2d565b7fc4474c2790e13695f6d2b6f1d8e164290b55370f87a542fd7711abe0a1bf40ac868660405161087f929190611694565b60405180910390a1505050505050565b60606001600083815260200190815260200160002080546108af90611663565b80601f01602080910402602001604051908101604052809291908181526020018280546108db90611663565b80156109285780601f106108fd57610100808354040283529160200191610928565b820191906000526020600020905b81548152906001019060200180831161090b57829003601f168201915b50505050509050919050565b6000602052806000526040600020600091509050805461095390611663565b80601f016020809104026020016040519081016040528092919081815260200182805461097f90611663565b80156109cc5780601f106109a1576101008083540402835291602001916109cc565b820191906000526020600020905b8154815290600101906020018083116109af57829003601f168201915b505050505081565b806109de81610d96565b6109eb8260600135610f12565b73ffffffffffffffffffffffffffffffffffffffff163373ffffffffffffffffffffffffffffffffffffffff1614610a4f576040517f48f5c3ed00000000000000000000000000000000000000000000000000000000815260040160405180910390fd5b8383600160008881526020019081526020016000209182610a719291906118a3565b50847f483d3112ecb64783c4387ebc2b4d6ec343dac57d2dd847b8fb25d97493c682288585604051610aa49291906119af565b60405180910390a25050505050565b80610ac18160400135610f12565b73ffffffffffffffffffffffffffffffffffffffff163373ffffffffffffffffffffffffffffffffffffffff1614610b25576040517f48f5c3ed00000000000000000000000000000000000000000000000000000000815260040160405180910390fd5b81610b2f81610d96565b610b4760028460e00135610e5690919063ffffffff16565b80421015610b81576040517f6f7eac2600000000000000000000000000000000000000000000000000000000815260040160405180910390fd5b610ba8610b918560800135610f12565b610b9e8660400135610f12565b8660a00135610f2d565b610bc2610bb88560400135610f12565b8560c00135610fa1565b7f6e3be9294e58d10b9c8053cfd5e09871b67e442fe394d6b0870d336b9df984a960405160405180910390a150505050565b80610bfe81610d96565b610c0b8260400135610f12565b73ffffffffffffffffffffffffffffffffffffffff163373ffffffffffffffffffffffffffffffffffffffff1614610c6f576040517f48f5c3ed00000000000000000000000000000000000000000000000000000000815260040160405180910390fd5b83836000808881526020019081526020016000209182610c909291906118a3565b50847fa3870e65776f13431dbed98ac6f948c2aa40b45d03971b2aa86a82e2410f7b398585604051610cc39291906119af565b60405180910390a25050505050565b60016020528060005260406000206000915090508054610cf190611663565b80601f0160208091040260200160405190810160405280929190818152602001828054610d1d90611663565b8015610d6a5780601f10610d3f57610100808354040283529160200191610d6a565b820191906000526020600020905b815481529060010190602001808311610d4d57829003601f168201915b505050505081565b7f000000000000000000000000000000000000000000000000000000000000000081565b6000610da182611049565b90503073ffffffffffffffffffffffffffffffffffffffff16610e05827f00000000000000000000000000000000000000000000000000000000000000007f0000000000000000000000000000000000000000000000000000000000000000611061565b73ffffffffffffffffffffffffffffffffffffffff1614610e52576040517fa269484a00000000000000000000000000000000000000000000000000000000815260040160405180910390fd5b5050565b60008083905060006020846002811115610e7357610e726119d3565b5b610e7d9190611a31565b90508082901c63ffffffff1660e083901c610e989190611a73565b9250505092915050565b610ec9610eb28260800135610f12565b610ebf8360600135610f12565b8360a00135610f2d565b610ee3610ed98260600135610f12565b8260c00135610fa1565b7ff2d860bc4f7fceae44fa48412367ec0186facf1dc99dfea591679d3ee6c930d360405160405180910390a150565b6000819050919050565b600060e083901c8201905092915050565b600073ffffffffffffffffffffffffffffffffffffffff168373ffffffffffffffffffffffffffffffffffffffff1603610f7057610f6b8282610fa1565b610f9c565b610f9b82828573ffffffffffffffffffffffffffffffffffffffff166110a29092919063ffffffff16565b5b505050565b60008273ffffffffffffffffffffffffffffffffffffffff1682604051610fc790611ad8565b60006040518083038185875af1925050503d8060008114611004576040519150601f19603f3d011682016040523d82523d6000602084013e611009565b606091505b5050905080611044576040517f8a0332d500000000000000000000000000000000000000000000000000000000815260040160405180910390fd5b505050565b60006040516101008382376101008120915050919050565b6000604051836040820152846020820152828152600b810160ff815373ffffffffffffffffffffffffffffffffffffffff6055822016925050509392505050565b61111c838473ffffffffffffffffffffffffffffffffffffffff1663a9059cbb85856040516024016110d5929190611694565b604051602081830303815290604052915060e01b6020820180517bffffffffffffffffffffffffffffffffffffffffffffffffffffffff8381831617835250505050611121565b505050565b600080602060008451602086016000885af180611144576040513d6000823e3d81fd5b3d92506000519150506000821461115f57600181141561117b565b60008473ffffffffffffffffffffffffffffffffffffffff163b145b156111bd57836040517f5274afe70000000000000000000000000000000000000000000000000000000081526004016111b49190611389565b60405180910390fd5b50505050565b600080fd5b600080fd5b6000819050919050565b6111e0816111cd565b81146111eb57600080fd5b50565b6000813590506111fd816111d7565b92915050565b600080fd5b6000610100828403121561121f5761121e611203565b5b81905092915050565b60008061012083850312156112405761123f6111c3565b5b600061124e858286016111ee565b925050602061125f85828601611208565b9150509250929050565b60006020828403121561127f5761127e6111c3565b5b600061128d848285016111ee565b91505092915050565b600081519050919050565b600082825260208201905092915050565b60005b838110156112d05780820151818401526020810190506112b5565b60008484015250505050565b6000601f19601f8301169050919050565b60006112f882611296565b61130281856112a1565b93506113128185602086016112b2565b61131b816112dc565b840191505092915050565b6000602082019050818103600083015261134081846112ed565b905092915050565b600073ffffffffffffffffffffffffffffffffffffffff82169050919050565b600061137382611348565b9050919050565b61138381611368565b82525050565b600060208201905061139e600083018461137a565b92915050565b6113ad816111cd565b82525050565b60006020820190506113c860008301846113a4565b92915050565b6113d781611368565b81146113e257600080fd5b50565b6000813590506113f4816113ce565b92915050565b6000819050919050565b61140d816113fa565b811461141857600080fd5b50565b60008135905061142a81611404565b92915050565b6000806000610140848603121561144a576114496111c3565b5b6000611458868287016113e5565b93505060206114698682870161141b565b925050604061147a86828701611208565b9150509250925092565b600080fd5b600080fd5b600080fd5b60008083601f8401126114a9576114a8611484565b5b8235905067ffffffffffffffff8111156114c6576114c5611489565b5b6020830191508360018202830111156114e2576114e161148e565b5b9250929050565b6000806000806101408587031215611504576115036111c3565b5b6000611512878288016111ee565b945050602085013567ffffffffffffffff811115611533576115326111c8565b5b61153f87828801611493565b9350935050604061155287828801611208565b91505092959194509250565b60006101008284031215611575576115746111c3565b5b600061158384828501611208565b91505092915050565b611595816113fa565b82525050565b60006020820190506115b0600083018461158c565b92915050565b6000815190506115c581611404565b92915050565b6000602082840312156115e1576115e06111c3565b5b60006115ef848285016115b6565b91505092915050565b6000819050919050565b61161361160e826111cd565b6115f8565b82525050565b60006116258284611602565b60208201915081905092915050565b7f4e487b7100000000000000000000000000000000000000000000000000000000600052602260045260246000fd5b6000600282049050600182168061167b57607f821691505b60208210810361168e5761168d611634565b5b50919050565b60006040820190506116a9600083018561137a565b6116b6602083018461158c565b9392505050565b600082905092915050565b7f4e487b7100000000000000000000000000000000000000000000000000000000600052604160045260246000fd5b60008190508160005260206000209050919050565b60006020601f8301049050919050565b600082821b905092915050565b6000600883026117597fffffffffffffffffffffffffffffffffffffffffffffffffffffffffffffffff8261171c565b611763868361171c565b95508019841693508086168417925050509392505050565b6000819050919050565b60006117a061179b611796846113fa565b61177b565b6113fa565b9050919050565b6000819050919050565b6117ba83611785565b6117ce6117c6826117a7565b848454611729565b825550505050565b600090565b6117e36117d6565b6117ee8184846117b1565b505050565b5b81811015611812576118076000826117db565b6001810190506117f4565b5050565b601f82111561185757611828816116f7565b6118318461170c565b81016020851015611840578190505b61185461184c8561170c565b8301826117f3565b50505b505050565b600082821c905092915050565b600061187a6000198460080261185c565b1980831691505092915050565b60006118938383611869565b9150826002028217905092915050565b6118ad83836116bd565b67ffffffffffffffff8111156118c6576118c56116c8565b5b6118d08254611663565b6118db828285611816565b6000601f83116001811461190a57600084156118f8578287013590505b6119028582611887565b86555061196a565b601f198416611918866116f7565b60005b828110156119405784890135825560018201915060208501945060208101905061191b565b8683101561195d5784890135611959601f891682611869565b8355505b6001600288020188555050505b50505050505050565b82818337600083830152505050565b600061198e83856112a1565b935061199b838584611973565b6119a4836112dc565b840190509392505050565b600060208201905081810360008301526119ca818486611982565b90509392505050565b7f4e487b7100000000000000000000000000000000000000000000000000000000600052602160045260246000fd5b7f4e487b7100000000000000000000000000000000000000000000000000000000600052601160045260246000fd5b6000611a3c826113fa565b9150611a47836113fa565b9250828202611a55816113fa565b91508282048414831517611a6c57611a6b611a02565b5b5092915050565b6000611a7e826113fa565b9150611a89836113fa565b9250828201905080821115611aa157611aa0611a02565b5b92915050565b600081905092915050565b50565b6000611ac2600083611aa7565b9150611acd82611ab2565b600082019050919050565b6000611ae382611ab5565b915081905091905056fea26469706673582212204f5684967aea7342a8abc0a0ae89ba96cf5ce13b0d4f4d450a49fcccb57e927c64736f6c634300081e0033",
  "linkReferences": {},
  "deployedLinkReferences": {}
}